{
  "contractName": "CallSpread",
  "abi": [
    {
      "constant": true,
      "inputs": [],
      "name": "_maxTimeToMaturity",
      "outputs": [
        {
          "name": "",
          "type": "uint256"
        }
      ],
      "payable": false,
      "stateMutability": "view",
      "type": "function"
    },
    {
      "constant": true,
      "inputs": [],
      "name": "_seller",
      "outputs": [
        {
          "name": "",
          "type": "address"
        }
      ],
      "payable": false,
      "stateMutability": "view",
      "type": "function"
    },
    {
      "constant": true,
      "inputs": [],
      "name": "_marginPct",
      "outputs": [
        {
          "name": "",
          "type": "uint256"
        }
      ],
      "payable": false,
      "stateMutability": "view",
      "type": "function"
    },
    {
      "constant": true,
      "inputs": [],
      "name": "_buyer",
      "outputs": [
        {
          "name": "",
          "type": "address"
        }
      ],
      "payable": false,
      "stateMutability": "view",
      "type": "function"
    },
    {
      "constant": false,
      "inputs": [],
      "name": "claim",
      "outputs": [],
      "payable": false,
      "stateMutability": "nonpayable",
      "type": "function"
    },
    {
      "constant": true,
      "inputs": [],
      "name": "_isActive",
      "outputs": [
        {
          "name": "",
          "type": "bool"
        }
      ],
      "payable": false,
      "stateMutability": "view",
      "type": "function"
    },
    {
      "constant": true,
      "inputs": [],
      "name": "_isComplete",
      "outputs": [
        {
          "name": "",
          "type": "bool"
        }
      ],
      "payable": false,
      "stateMutability": "view",
      "type": "function"
    },
    {
      "constant": true,
      "inputs": [],
      "name": "_sellerLeg",
      "outputs": [
        {
          "name": "",
          "type": "address"
        }
      ],
      "payable": false,
      "stateMutability": "view",
      "type": "function"
    },
    {
      "constant": false,
      "inputs": [
        {
          "name": "newOwner",
          "type": "address"
        }
      ],
      "name": "changeOwner",
      "outputs": [],
      "payable": false,
      "stateMutability": "nonpayable",
      "type": "function"
    },
    {
      "constant": true,
      "inputs": [],
      "name": "_owner",
      "outputs": [
        {
          "name": "",
          "type": "address"
        }
      ],
      "payable": false,
      "stateMutability": "view",
      "type": "function"
    },
    {
      "constant": false,
      "inputs": [
        {
          "name": "flag",
          "type": "bool"
        }
      ],
      "name": "toText",
      "outputs": [
        {
          "name": "",
          "type": "bytes"
        }
      ],
      "payable": false,
      "stateMutability": "nonpayable",
      "type": "function"
    },
    {
      "constant": true,
      "inputs": [],
      "name": "_buyerLeg",
      "outputs": [
        {
          "name": "",
          "type": "address"
        }
      ],
      "payable": false,
      "stateMutability": "view",
      "type": "function"
    },
    {
      "inputs": [],
      "payable": false,
      "stateMutability": "nonpayable",
      "type": "constructor"
    },
    {
      "anonymous": false,
      "inputs": [
        {
          "indexed": false,
          "name": "totalMargin",
          "type": "uint256"
        }
      ],
      "name": "infoMargin",
      "type": "event"
    },
    {
      "anonymous": false,
      "inputs": [
        {
          "indexed": false,
          "name": "initialTime",
          "type": "uint256"
        },
        {
          "indexed": false,
          "name": "totalTime",
          "type": "uint256"
        }
      ],
      "name": "infoTime",
      "type": "event"
    },
    {
      "anonymous": false,
      "inputs": [
        {
          "indexed": false,
          "name": "message",
          "type": "bytes"
        }
      ],
      "name": "Error",
      "type": "event"
    },
    {
      "anonymous": false,
      "inputs": [
        {
          "indexed": false,
          "name": "addr",
          "type": "address"
        },
        {
          "indexed": false,
          "name": "outcome",
          "type": "bytes"
        }
      ],
      "name": "Authorization",
      "type": "event"
    },
    {
      "anonymous": false,
      "inputs": [
        {
          "indexed": false,
          "name": "addr",
          "type": "address"
        },
        {
          "indexed": false,
          "name": "outcome",
          "type": "bytes"
        }
      ],
      "name": "Validation",
      "type": "event"
    },
    {
      "anonymous": false,
      "inputs": [
        {
          "indexed": false,
          "name": "addr",
          "type": "address"
        },
        {
          "indexed": false,
          "name": "outcome",
          "type": "bytes"
        }
      ],
      "name": "Withdrawal",
      "type": "event"
    },
    {
      "anonymous": false,
      "inputs": [
        {
          "indexed": false,
          "name": "addr",
          "type": "address"
        },
        {
          "indexed": false,
          "name": "outcome",
          "type": "bytes"
        }
      ],
      "name": "Exercise",
      "type": "event"
    },
    {
      "anonymous": false,
      "inputs": [
        {
          "indexed": false,
          "name": "from",
          "type": "address"
        },
        {
          "indexed": false,
          "name": "to",
          "type": "address"
        },
        {
          "indexed": false,
          "name": "amount",
          "type": "uint256"
        }
      ],
      "name": "CashFlow",
      "type": "event"
    },
    {
      "constant": false,
      "inputs": [
        {
          "name": "sellerAcct",
          "type": "address"
        },
        {
          "name": "buyerAcct",
          "type": "address"
        },
        {
          "name": "sellerLeg",
          "type": "address"
        },
        {
          "name": "feedProvider",
          "type": "address"
        },
        {
          "name": "feedName",
          "type": "string"
        },
        {
          "name": "sellerStrikePctOfMarketValue",
          "type": "uint256"
        },
        {
          "name": "notional",
          "type": "uint256"
        },
        {
          "name": "timeToMaturity",
          "type": "uint256"
        }
      ],
      "name": "initialize",
      "outputs": [
        {
          "name": "",
          "type": "bool"
        }
      ],
      "payable": false,
      "stateMutability": "nonpayable",
      "type": "function"
    },
    {
      "constant": false,
      "inputs": [
        {
          "name": "sellerAcct",
          "type": "address"
        },
        {
          "name": "buyerAcct",
          "type": "address"
        },
        {
          "name": "buyerLeg",
          "type": "address"
        },
        {
          "name": "feedProvider",
          "type": "address"
        },
        {
          "name": "feedName",
          "type": "string"
        },
        {
          "name": "buyerStrikePctOfMarketValue",
          "type": "uint256"
        },
        {
          "name": "notional",
          "type": "uint256"
        },
        {
          "name": "timeToMaturity",
          "type": "uint256"
        },
        {
          "name": "marginPct",
          "type": "uint256"
        }
      ],
      "name": "initialize2",
      "outputs": [],
      "payable": false,
      "stateMutability": "nonpayable",
      "type": "function"
    },
    {
      "constant": false,
      "inputs": [
        {
          "name": "sellerAcct",
          "type": "address"
        },
        {
          "name": "buyerAcct",
          "type": "address"
        }
      ],
      "name": "initialize3",
      "outputs": [],
      "payable": false,
      "stateMutability": "nonpayable",
      "type": "function"
    },
    {
      "constant": false,
      "inputs": [
        {
          "name": "buffer",
          "type": "uint256"
        }
      ],
      "name": "authorizeTradingAccounts",
      "outputs": [
        {
          "name": "",
          "type": "bool"
        }
      ],
      "payable": false,
      "stateMutability": "nonpayable",
      "type": "function"
    },
    {
      "constant": false,
      "inputs": [],
      "name": "validate",
      "outputs": [
        {
          "name": "",
          "type": "bool"
        }
      ],
      "payable": false,
      "stateMutability": "nonpayable",
      "type": "function"
    },
    {
      "constant": false,
      "inputs": [],
      "name": "withdraw",
      "outputs": [
        {
          "name": "",
          "type": "bool"
        }
      ],
      "payable": false,
      "stateMutability": "nonpayable",
      "type": "function"
    },
    {
      "constant": false,
      "inputs": [],
      "name": "exercise",
      "outputs": [
        {
          "name": "",
          "type": "bool"
        }
      ],
      "payable": false,
      "stateMutability": "nonpayable",
      "type": "function"
    },
    {
      "constant": false,
      "inputs": [],
      "name": "rebalanceMargin",
      "outputs": [
        {
          "name": "",
          "type": "bool"
        }
      ],
      "payable": false,
      "stateMutability": "nonpayable",
      "type": "function"
    },
    {
      "constant": false,
      "inputs": [],
      "name": "returnMargin",
      "outputs": [],
      "payable": false,
      "stateMutability": "nonpayable",
      "type": "function"
    },
    {
      "constant": false,
      "inputs": [
        {
          "name": "initialTime",
          "type": "uint256"
        }
      ],
      "name": "ping",
      "outputs": [
        {
          "name": "",
          "type": "bool"
        }
      ],
      "payable": false,
      "stateMutability": "nonpayable",
      "type": "function"
    },
    {
      "constant": false,
      "inputs": [],
      "name": "getSellerOption",
      "outputs": [
        {
          "name": "",
          "type": "address"
        }
      ],
      "payable": false,
      "stateMutability": "nonpayable",
      "type": "function"
    },
    {
      "constant": false,
      "inputs": [],
      "name": "getBuyerOption",
      "outputs": [
        {
          "name": "",
          "type": "address"
        }
      ],
      "payable": false,
      "stateMutability": "nonpayable",
      "type": "function"
    }
  ],
  "bytecode": "0x608060405234801561001057600080fd5b50336000806101000a81548173ffffffffffffffffffffffffffffffffffffffff021916908373ffffffffffffffffffffffffffffffffffffffff16021790555060008060146101000a81548160ff02191690831515021790555060008060156101000a81548160ff021916908315150217905550613b2a806100946000396000f30060806040526004361061013d576000357c0100000000000000000000000000000000000000000000000000000000900463ffffffff168062e1ffbb1461014257806304cbc7911461016d57806325a34aca146101c45780632a7ce026146101db57806338283a1f146102325780633ccfd60b1461025d578063418d75b61461028c5780634355f1ec146102e35780634e71d92d1461033a57806359b2dde0146103515780636901f66814610462578063773acdef146104915780637c4b6a1b146104d65780638ec89e4f146105f5578063913bb26314610624578063948ecc9914610653578063a6f9dae1146106aa578063b2bdfa7b146106ed578063caf19e5a14610744578063d32cb0fe146107ec578063dd9bf9981461081b578063e6d7d0cd14610860578063ecc7296b146108c3578063f86a3c8a146108f2575b600080fd5b34801561014e57600080fd5b50610157610949565b6040518082815260200191505060405180910390f35b34801561017957600080fd5b5061018261094f565b604051808273ffffffffffffffffffffffffffffffffffffffff1673ffffffffffffffffffffffffffffffffffffffff16815260200191505060405180910390f35b3480156101d057600080fd5b506101d9610979565b005b3480156101e757600080fd5b506101f0610b9f565b604051808273ffffffffffffffffffffffffffffffffffffffff1673ffffffffffffffffffffffffffffffffffffffff16815260200191505060405180910390f35b34801561023e57600080fd5b50610247610bc5565b6040518082815260200191505060405180910390f35b34801561026957600080fd5b50610272610bcb565b604051808215151515815260200191505060405180910390f35b34801561029857600080fd5b506102a161125a565b604051808273ffffffffffffffffffffffffffffffffffffffff1673ffffffffffffffffffffffffffffffffffffffff16815260200191505060405180910390f35b3480156102ef57600080fd5b506102f8611284565b604051808273ffffffffffffffffffffffffffffffffffffffff1673ffffffffffffffffffffffffffffffffffffffff16815260200191505060405180910390f35b34801561034657600080fd5b5061034f6112aa565b005b34801561035d57600080fd5b50610460600480360381019080803573ffffffffffffffffffffffffffffffffffffffff169060200190929190803573ffffffffffffffffffffffffffffffffffffffff169060200190929190803573ffffffffffffffffffffffffffffffffffffffff169060200190929190803573ffffffffffffffffffffffffffffffffffffffff169060200190929190803590602001908201803590602001908080601f016020809104026020016040519081016040528093929190818152602001838380828437820191505050505050919291929080359060200190929190803590602001909291908035906020019092919080359060200190929190505050611438565b005b34801561046e57600080fd5b5061047761170f565b604051808215151515815260200191505060405180910390f35b34801561049d57600080fd5b506104bc6004803603810190808035906020019092919050505061202e565b604051808215151515815260200191505060405180910390f35b3480156104e257600080fd5b506105db600480360381019080803573ffffffffffffffffffffffffffffffffffffffff169060200190929190803573ffffffffffffffffffffffffffffffffffffffff169060200190929190803573ffffffffffffffffffffffffffffffffffffffff169060200190929190803573ffffffffffffffffffffffffffffffffffffffff169060200190929190803590602001908201803590602001908080601f016020809104026020016040519081016040528093929190818152602001838380828437820191505050505050919291929080359060200190929190803590602001909291908035906020019092919050505061203f565b604051808215151515815260200191505060405180910390f35b34801561060157600080fd5b5061060a612312565b604051808215151515815260200191505060405180910390f35b34801561063057600080fd5b50610639612325565b604051808215151515815260200191505060405180910390f35b34801561065f57600080fd5b50610668612338565b604051808273ffffffffffffffffffffffffffffffffffffffff1673ffffffffffffffffffffffffffffffffffffffff16815260200191505060405180910390f35b3480156106b657600080fd5b506106eb600480360381019080803573ffffffffffffffffffffffffffffffffffffffff16906020019092919050505061235e565b005b3480156106f957600080fd5b506107026123f7565b604051808273ffffffffffffffffffffffffffffffffffffffff1673ffffffffffffffffffffffffffffffffffffffff16815260200191505060405180910390f35b34801561075057600080fd5b5061077160048036038101908080351515906020019092919050505061241c565b6040518080602001828103825283818151815260200191508051906020019080838360005b838110156107b1578082015181840152602081019050610796565b50505050905090810190601f1680156107de5780820380516001836020036101000a031916815260200191505b509250505060405180910390f35b3480156107f857600080fd5b5061080161249f565b604051808215151515815260200191505060405180910390f35b34801561082757600080fd5b5061084660048036038101908080359060200190929190505050612b3f565b604051808215151515815260200191505060405180910390f35b34801561086c57600080fd5b506108c1600480360381019080803573ffffffffffffffffffffffffffffffffffffffff169060200190929190803573ffffffffffffffffffffffffffffffffffffffff169060200190929190505050612fc1565b005b3480156108cf57600080fd5b506108d86134b1565b604051808215151515815260200191505060405180910390f35b3480156108fe57600080fd5b50610907613a12565b604051808273ffffffffffffffffffffffffffffffffffffffff1673ffffffffffffffffffffffffffffffffffffffff16815260200191505060405180910390f35b60085481565b6000600660009054906101000a900473ffffffffffffffffffffffffffffffffffffffff16905090565b600560009054906101000a900473ffffffffffffffffffffffffffffffffffffffff1673ffffffffffffffffffffffffffffffffffffffff1663ae4e7fdf6040518163ffffffff167c0100000000000000000000000000000000000000000000000000000000028152600401602060405180830381600087803b1580156109ff57600080fd5b505af1158015610a13573d6000803e3d6000fd5b505050506040513d6020811015610a2957600080fd5b810190808051906020019092919050505015610b9c577fec106815f3bcc94faea9ba36bcca01ef908f1279e98e9504ec6d5bce2d58241030600460009054906101000a900473ffffffffffffffffffffffffffffffffffffffff163073ffffffffffffffffffffffffffffffffffffffff1631604051808473ffffffffffffffffffffffffffffffffffffffff1673ffffffffffffffffffffffffffffffffffffffff1681526020018373ffffffffffffffffffffffffffffffffffffffff1673ffffffffffffffffffffffffffffffffffffffff168152602001828152602001935050505060405180910390a1600460009054906101000a900473ffffffffffffffffffffffffffffffffffffffff1673ffffffffffffffffffffffffffffffffffffffff166108fc3073ffffffffffffffffffffffffffffffffffffffff16319081150290604051600060405180830381858888f19350505050158015610b96573d6000803e3d6000fd5b50610b9d565b5b565b600260009054906101000a900473ffffffffffffffffffffffffffffffffffffffff1681565b60075481565b60008060008060149054906101000a900460ff1615610c7b577fc75fb740d515c4fc862cc5c8f95343266e804872e7206e24f75751db41c4bcdc6040518080602001828103825260258152602001807f5769746864726177616c20726571756972657320696e61637469766520636f6e81526020017f747261637400000000000000000000000000000000000000000000000000000081525060400191505060405180910390a160009250611255565b610ca6600160009054906101000a900473ffffffffffffffffffffffffffffffffffffffff16613a38565b80610cd85750610cd7600260009054906101000a900473ffffffffffffffffffffffffffffffffffffffff16613a38565b5b15610d74577fc75fb740d515c4fc862cc5c8f95343266e804872e7206e24f75751db41c4bcdc60405180806020018281038252602b8152602001807f5769746864726177616c206d75737420626520696e697469617465642062792081526020017f7061727469636970616e7400000000000000000000000000000000000000000081525060400191505060405180910390a160009250611255565b600560009054906101000a900473ffffffffffffffffffffffffffffffffffffffff1673ffffffffffffffffffffffffffffffffffffffff16633ccfd60b6040518163ffffffff167c0100000000000000000000000000000000000000000000000000000000028152600401602060405180830381600087803b158015610dfa57600080fd5b505af1158015610e0e573d6000803e3d6000fd5b505050506040513d6020811015610e2457600080fd5b810190808051906020019092919050505091507fe5931718848ec5427509210911211a718db19ddb36fde61b127b34eb80019ea9600560009054906101000a900473ffffffffffffffffffffffffffffffffffffffff16610e848461241c565b604051808373ffffffffffffffffffffffffffffffffffffffff1673ffffffffffffffffffffffffffffffffffffffff16815260200180602001828103825283818151815260200191508051906020019080838360005b83811015610ef6578082015181840152602081019050610edb565b50505050905090810190601f168015610f235780820380516001836020036101000a031916815260200191505b50935050505060405180910390a1600660009054906101000a900473ffffffffffffffffffffffffffffffffffffffff1673ffffffffffffffffffffffffffffffffffffffff16633ccfd60b6040518163ffffffff167c0100000000000000000000000000000000000000000000000000000000028152600401602060405180830381600087803b158015610fb757600080fd5b505af1158015610fcb573d6000803e3d6000fd5b505050506040513d6020811015610fe157600080fd5b810190808051906020019092919050505090507fe5931718848ec5427509210911211a718db19ddb36fde61b127b34eb80019ea9600660009054906101000a900473ffffffffffffffffffffffffffffffffffffffff166110418361241c565b604051808373ffffffffffffffffffffffffffffffffffffffff1673ffffffffffffffffffffffffffffffffffffffff16815260200180602001828103825283818151815260200191508051906020019080838360005b838110156110b3578082015181840152602081019050611098565b50505050905090810190601f1680156110e05780820380516001836020036101000a031916815260200191505b50935050505060405180910390a16000809054906101000a900473ffffffffffffffffffffffffffffffffffffffff1673ffffffffffffffffffffffffffffffffffffffff166108fc3073ffffffffffffffffffffffffffffffffffffffff16319081150290604051600060405180830381858888f19350505050506001600060156101000a81548160ff0219169083151502179055507fe5931718848ec5427509210911211a718db19ddb36fde61b127b34eb80019ea9306111a3600161241c565b604051808373ffffffffffffffffffffffffffffffffffffffff1673ffffffffffffffffffffffffffffffffffffffff16815260200180602001828103825283818151815260200191508051906020019080838360005b838110156112155780820151818401526020810190506111fa565b50505050905090810190601f1680156112425780820380516001836020036101000a031916815260200191505b50935050505060405180910390a1600192505b505090565b6000600560009054906101000a900473ffffffffffffffffffffffffffffffffffffffff16905090565b600160009054906101000a900473ffffffffffffffffffffffffffffffffffffffff1681565b6000809054906101000a900473ffffffffffffffffffffffffffffffffffffffff1673ffffffffffffffffffffffffffffffffffffffff163273ffffffffffffffffffffffffffffffffffffffff161480156113f057506000809054906101000a900473ffffffffffffffffffffffffffffffffffffffff1673ffffffffffffffffffffffffffffffffffffffff163373ffffffffffffffffffffffffffffffffffffffff1663b2bdfa7b6040518163ffffffff167c0100000000000000000000000000000000000000000000000000000000028152600401602060405180830381600087803b15801561139d57600080fd5b505af11580156113b1573d6000803e3d6000fd5b505050506040513d60208110156113c757600080fd5b810190808051906020019092919050505073ffffffffffffffffffffffffffffffffffffffff16145b1561143657336000806101000a81548173ffffffffffffffffffffffffffffffffffffffff021916908373ffffffffffffffffffffffffffffffffffffffff1602179055505b565b86600560006101000a81548173ffffffffffffffffffffffffffffffffffffffff021916908373ffffffffffffffffffffffffffffffffffffffff160217905550600560009054906101000a900473ffffffffffffffffffffffffffffffffffffffff1673ffffffffffffffffffffffffffffffffffffffff16634e71d92d6040518163ffffffff167c0100000000000000000000000000000000000000000000000000000000028152600401600060405180830381600087803b1580156114ff57600080fd5b505af1158015611513573d6000803e3d6000fd5b50505050600560009054906101000a900473ffffffffffffffffffffffffffffffffffffffff1673ffffffffffffffffffffffffffffffffffffffff166325787798898b89898989896040518863ffffffff167c0100000000000000000000000000000000000000000000000000000000028152600401808873ffffffffffffffffffffffffffffffffffffffff1673ffffffffffffffffffffffffffffffffffffffff1681526020018773ffffffffffffffffffffffffffffffffffffffff1673ffffffffffffffffffffffffffffffffffffffff1681526020018673ffffffffffffffffffffffffffffffffffffffff1673ffffffffffffffffffffffffffffffffffffffff16815260200180602001858152602001848152602001838152602001828103825286818151815260200191508051906020019080838360005b8381101561166f578082015181840152602081019050611654565b50505050905090810190601f16801561169c5780820380516001836020036101000a031916815260200191505b5098505050505050505050602060405180830381600087803b1580156116c157600080fd5b505af11580156116d5573d6000803e3d6000fd5b505050506040513d60208110156116eb57600080fd5b81019080805190602001909291905050505080600781905550505050505050505050565b60008060008060149054906101000a900460ff168061173a5750600060159054906101000a900460ff165b156117d6577fc75fb740d515c4fc862cc5c8f95343266e804872e7206e24f75751db41c4bcdc6040518080602001828103825260258152602001807f56616c69646174696f6e20726571756972657320696e61637469766520636f6e81526020017f747261637400000000000000000000000000000000000000000000000000000081525060400191505060405180910390a160019250612029565b6117e4600360085402612b3f565b50600360009054906101000a900473ffffffffffffffffffffffffffffffffffffffff1673ffffffffffffffffffffffffffffffffffffffff1663fe9fbb80306040518263ffffffff167c0100000000000000000000000000000000000000000000000000000000028152600401808273ffffffffffffffffffffffffffffffffffffffff1673ffffffffffffffffffffffffffffffffffffffff168152602001915050602060405180830381600087803b1580156118a257600080fd5b505af11580156118b6573d6000803e3d6000fd5b505050506040513d60208110156118cc57600080fd5b810190808051906020019092919050505015806119de5750600460009054906101000a900473ffffffffffffffffffffffffffffffffffffffff1673ffffffffffffffffffffffffffffffffffffffff1663fe9fbb80306040518263ffffffff167c0100000000000000000000000000000000000000000000000000000000028152600401808273ffffffffffffffffffffffffffffffffffffffff1673ffffffffffffffffffffffffffffffffffffffff168152602001915050602060405180830381600087803b1580156119a157600080fd5b505af11580156119b5573d6000803e3d6000fd5b505050506040513d60208110156119cb57600080fd5b8101908080519060200190929190505050155b15611a7a577fc75fb740d515c4fc862cc5c8f95343266e804872e7206e24f75751db41c4bcdc60405180806020018281038252602f8152602001807f56616c69646174696f6e20726571756972657320617574686f72697a6564207481526020017f726164696e67206163636f756e7473000000000000000000000000000000000081525060400191505060405180910390a160009250612029565b600560009054906101000a900473ffffffffffffffffffffffffffffffffffffffff1673ffffffffffffffffffffffffffffffffffffffff16636901f6686040518163ffffffff167c0100000000000000000000000000000000000000000000000000000000028152600401602060405180830381600087803b158015611b0057600080fd5b505af1158015611b14573d6000803e3d6000fd5b505050506040513d6020811015611b2a57600080fd5b810190808051906020019092919050505091507fb44e0af213ece6f3aab6c5d4ac88b2fb69bc37851ea73e7b11718e585e7b0781600560009054906101000a900473ffffffffffffffffffffffffffffffffffffffff16611b8a8461241c565b604051808373ffffffffffffffffffffffffffffffffffffffff1673ffffffffffffffffffffffffffffffffffffffff16815260200180602001828103825283818151815260200191508051906020019080838360005b83811015611bfc578082015181840152602081019050611be1565b50505050905090810190601f168015611c295780820380516001836020036101000a031916815260200191505b50935050505060405180910390a1811515611cd5577fc75fb740d515c4fc862cc5c8f95343266e804872e7206e24f75751db41c4bcdc6040518080602001828103825260278152602001807f56616c69646174696f6e2072657175697265732076616c69646174656420627581526020017f796572206c65670000000000000000000000000000000000000000000000000081525060400191505060405180910390a160009250612029565b600660009054906101000a900473ffffffffffffffffffffffffffffffffffffffff1673ffffffffffffffffffffffffffffffffffffffff16636901f6686040518163ffffffff167c0100000000000000000000000000000000000000000000000000000000028152600401602060405180830381600087803b158015611d5b57600080fd5b505af1158015611d6f573d6000803e3d6000fd5b505050506040513d6020811015611d8557600080fd5b810190808051906020019092919050505090507fb44e0af213ece6f3aab6c5d4ac88b2fb69bc37851ea73e7b11718e585e7b0781600660009054906101000a900473ffffffffffffffffffffffffffffffffffffffff16611de58361241c565b604051808373ffffffffffffffffffffffffffffffffffffffff1673ffffffffffffffffffffffffffffffffffffffff16815260200180602001828103825283818151815260200191508051906020019080838360005b83811015611e57578082015181840152602081019050611e3c565b50505050905090810190601f168015611e845780820380516001836020036101000a031916815260200191505b50935050505060405180910390a1801515611f30577fc75fb740d515c4fc862cc5c8f95343266e804872e7206e24f75751db41c4bcdc6040518080602001828103825260288152602001807f56616c69646174696f6e2072657175697265732076616c69646174656420736581526020017f6c6c6572206c656700000000000000000000000000000000000000000000000081525060400191505060405180910390a160009250612029565b6001600060146101000a81548160ff0219169083151502179055507fb44e0af213ece6f3aab6c5d4ac88b2fb69bc37851ea73e7b11718e585e7b078130611f77600161241c565b604051808373ffffffffffffffffffffffffffffffffffffffff1673ffffffffffffffffffffffffffffffffffffffff16815260200180602001828103825283818151815260200191508051906020019080838360005b83811015611fe9578082015181840152602081019050611fce565b50505050905090810190601f1680156120165780820380516001836020036101000a031916815260200191505b50935050505060405180910390a1600192505b505090565b60006120386134b1565b9050919050565b600086600660006101000a81548173ffffffffffffffffffffffffffffffffffffffff021916908373ffffffffffffffffffffffffffffffffffffffff160217905550600660009054906101000a900473ffffffffffffffffffffffffffffffffffffffff1673ffffffffffffffffffffffffffffffffffffffff16634e71d92d6040518163ffffffff167c0100000000000000000000000000000000000000000000000000000000028152600401600060405180830381600087803b15801561210857600080fd5b505af115801561211c573d6000803e3d6000fd5b50505050600660009054906101000a900473ffffffffffffffffffffffffffffffffffffffff1673ffffffffffffffffffffffffffffffffffffffff1663257877988a8a89898989896040518863ffffffff167c0100000000000000000000000000000000000000000000000000000000028152600401808873ffffffffffffffffffffffffffffffffffffffff1673ffffffffffffffffffffffffffffffffffffffff1681526020018773ffffffffffffffffffffffffffffffffffffffff1673ffffffffffffffffffffffffffffffffffffffff1681526020018673ffffffffffffffffffffffffffffffffffffffff1673ffffffffffffffffffffffffffffffffffffffff16815260200180602001858152602001848152602001838152602001828103825286818151815260200191508051906020019080838360005b8381101561227857808201518184015260208101905061225d565b50505050905090810190601f1680156122a55780820380516001836020036101000a031916815260200191505b5098505050505050505050602060405180830381600087803b1580156122ca57600080fd5b505af11580156122de573d6000803e3d6000fd5b505050506040513d60208110156122f457600080fd5b81019080805190602001909291905050505098975050505050505050565b600060149054906101000a900460ff1681565b600060159054906101000a900460ff1681565b600660009054906101000a900473ffffffffffffffffffffffffffffffffffffffff1681565b6000809054906101000a900473ffffffffffffffffffffffffffffffffffffffff1673ffffffffffffffffffffffffffffffffffffffff163373ffffffffffffffffffffffffffffffffffffffff1614156123f457806000806101000a81548173ffffffffffffffffffffffffffffffffffffffff021916908373ffffffffffffffffffffffffffffffffffffffff1602179055505b50565b6000809054906101000a900473ffffffffffffffffffffffffffffffffffffffff1681565b60608115612461576040805190810160405280600781526020017f5355434345535300000000000000000000000000000000000000000000000000815250905061249a565b6040805190810160405280600781526020017f4641494c5552450000000000000000000000000000000000000000000000000081525090505b919050565b600080600060019150600190506124d7600160009054906101000a900473ffffffffffffffffffffffffffffffffffffffff16613a38565b156126a2576124e4610979565b600560009054906101000a900473ffffffffffffffffffffffffffffffffffffffff1673ffffffffffffffffffffffffffffffffffffffff1663d32cb0fe6040518163ffffffff167c0100000000000000000000000000000000000000000000000000000000028152600401602060405180830381600087803b15801561256a57600080fd5b505af115801561257e573d6000803e3d6000fd5b505050506040513d602081101561259457600080fd5b810190808051906020019092919050505091507fe593aea7df942d99ef64601dc3fa550d7c204bd3bf4f5f317af7bd1b237739fd600560009054906101000a900473ffffffffffffffffffffffffffffffffffffffff166125f48461241c565b604051808373ffffffffffffffffffffffffffffffffffffffff1673ffffffffffffffffffffffffffffffffffffffff16815260200180602001828103825283818151815260200191508051906020019080838360005b8381101561266657808201518184015260208101905061264b565b50505050905090810190601f1680156126935780820380516001836020036101000a031916815260200191505b50935050505060405180910390a15b6126cd600260009054906101000a900473ffffffffffffffffffffffffffffffffffffffff16613a38565b1561289057600660009054906101000a900473ffffffffffffffffffffffffffffffffffffffff1673ffffffffffffffffffffffffffffffffffffffff1663d32cb0fe6040518163ffffffff167c0100000000000000000000000000000000000000000000000000000000028152600401602060405180830381600087803b15801561275857600080fd5b505af115801561276c573d6000803e3d6000fd5b505050506040513d602081101561278257600080fd5b810190808051906020019092919050505090507fe593aea7df942d99ef64601dc3fa550d7c204bd3bf4f5f317af7bd1b237739fd600660009054906101000a900473ffffffffffffffffffffffffffffffffffffffff166127e28361241c565b604051808373ffffffffffffffffffffffffffffffffffffffff1673ffffffffffffffffffffffffffffffffffffffff16815260200180602001828103825283818151815260200191508051906020019080838360005b83811015612854578082015181840152602081019050612839565b50505050905090810190601f1680156128815780820380516001836020036101000a031916815260200191505b50935050505060405180910390a15b600660009054906101000a900473ffffffffffffffffffffffffffffffffffffffff1673ffffffffffffffffffffffffffffffffffffffff1663913bb2636040518163ffffffff167c0100000000000000000000000000000000000000000000000000000000028152600401602060405180830381600087803b15801561291657600080fd5b505af115801561292a573d6000803e3d6000fd5b505050506040513d602081101561294057600080fd5b81019080805190602001909291905050508015612a1a5750600560009054906101000a900473ffffffffffffffffffffffffffffffffffffffff1673ffffffffffffffffffffffffffffffffffffffff1663913bb2636040518163ffffffff167c0100000000000000000000000000000000000000000000000000000000028152600401602060405180830381600087803b1580156129de57600080fd5b505af11580156129f2573d6000803e3d6000fd5b505050506040513d6020811015612a0857600080fd5b81019080805190602001909291905050505b15612b2e5760008060146101000a81548160ff0219169083151502179055506001600060156101000a81548160ff0219169083151502179055507fe593aea7df942d99ef64601dc3fa550d7c204bd3bf4f5f317af7bd1b237739fd30612a80600161241c565b604051808373ffffffffffffffffffffffffffffffffffffffff1673ffffffffffffffffffffffffffffffffffffffff16815260200180602001828103825283818151815260200191508051906020019080838360005b83811015612af2578082015181840152602081019050612ad7565b50505050905090810190601f168015612b1f5780820380516001836020036101000a031916815260200191505b50935050505060405180910390a15b818015612b385750805b9250505090565b60008060006001915060019050612b77600160009054906101000a900473ffffffffffffffffffffffffffffffffffffffff16613a38565b15612d7d57600360009054906101000a900473ffffffffffffffffffffffffffffffffffffffff1673ffffffffffffffffffffffffffffffffffffffff1663c1dbd9b23086600854016040518363ffffffff167c0100000000000000000000000000000000000000000000000000000000028152600401808373ffffffffffffffffffffffffffffffffffffffff1673ffffffffffffffffffffffffffffffffffffffff16815260200182815260200192505050602060405180830381600087803b158015612c4557600080fd5b505af1158015612c59573d6000803e3d6000fd5b505050506040513d6020811015612c6f57600080fd5b810190808051906020019092919050505091507f70ff76a87b888f32d6cf303cd228f8cf96566a85d44b969bf435422de2fa95da600360009054906101000a900473ffffffffffffffffffffffffffffffffffffffff16612ccf8461241c565b604051808373ffffffffffffffffffffffffffffffffffffffff1673ffffffffffffffffffffffffffffffffffffffff16815260200180602001828103825283818151815260200191508051906020019080838360005b83811015612d41578082015181840152602081019050612d26565b50505050905090810190601f168015612d6e5780820380516001836020036101000a031916815260200191505b50935050505060405180910390a15b612da8600260009054906101000a900473ffffffffffffffffffffffffffffffffffffffff16613a38565b15612fae57600460009054906101000a900473ffffffffffffffffffffffffffffffffffffffff1673ffffffffffffffffffffffffffffffffffffffff1663c1dbd9b23086600854016040518363ffffffff167c0100000000000000000000000000000000000000000000000000000000028152600401808373ffffffffffffffffffffffffffffffffffffffff1673ffffffffffffffffffffffffffffffffffffffff16815260200182815260200192505050602060405180830381600087803b158015612e7657600080fd5b505af1158015612e8a573d6000803e3d6000fd5b505050506040513d6020811015612ea057600080fd5b810190808051906020019092919050505090507f70ff76a87b888f32d6cf303cd228f8cf96566a85d44b969bf435422de2fa95da600460009054906101000a900473ffffffffffffffffffffffffffffffffffffffff16612f008361241c565b604051808373ffffffffffffffffffffffffffffffffffffffff1673ffffffffffffffffffffffffffffffffffffffff16815260200180602001828103825283818151815260200191508051906020019080838360005b83811015612f72578082015181840152602081019050612f57565b50505050905090810190601f168015612f9f5780820380516001836020036101000a031916815260200191505b50935050505060405180910390a15b818015612fb85750805b92505050919050565b600560009054906101000a900473ffffffffffffffffffffffffffffffffffffffff1673ffffffffffffffffffffffffffffffffffffffff1663b570571e6040518163ffffffff167c0100000000000000000000000000000000000000000000000000000000028152600401602060405180830381600087803b15801561304757600080fd5b505af115801561305b573d6000803e3d6000fd5b505050506040513d602081101561307157600080fd5b8101908080519060200190929190505050600881905550600660009054906101000a900473ffffffffffffffffffffffffffffffffffffffff1673ffffffffffffffffffffffffffffffffffffffff1663b570571e6040518163ffffffff167c0100000000000000000000000000000000000000000000000000000000028152600401602060405180830381600087803b15801561310e57600080fd5b505af1158015613122573d6000803e3d6000fd5b505050506040513d602081101561313857600080fd5b8101908080519060200190929190505050600854101561321a57600660009054906101000a900473ffffffffffffffffffffffffffffffffffffffff1673ffffffffffffffffffffffffffffffffffffffff1663b570571e6040518163ffffffff167c0100000000000000000000000000000000000000000000000000000000028152600401602060405180830381600087803b1580156131d857600080fd5b505af11580156131ec573d6000803e3d6000fd5b505050506040513d602081101561320257600080fd5b81019080805190602001909291905050506008819055505b80600360006101000a81548173ffffffffffffffffffffffffffffffffffffffff021916908373ffffffffffffffffffffffffffffffffffffffff160217905550600360009054906101000a900473ffffffffffffffffffffffffffffffffffffffff1673ffffffffffffffffffffffffffffffffffffffff1663b2bdfa7b6040518163ffffffff167c0100000000000000000000000000000000000000000000000000000000028152600401602060405180830381600087803b1580156132e157600080fd5b505af11580156132f5573d6000803e3d6000fd5b505050506040513d602081101561330b57600080fd5b8101908080519060200190929190505050600160006101000a81548173ffffffffffffffffffffffffffffffffffffffff021916908373ffffffffffffffffffffffffffffffffffffffff16021790555081600460006101000a81548173ffffffffffffffffffffffffffffffffffffffff021916908373ffffffffffffffffffffffffffffffffffffffff160217905550600460009054906101000a900473ffffffffffffffffffffffffffffffffffffffff1673ffffffffffffffffffffffffffffffffffffffff1663b2bdfa7b6040518163ffffffff167c0100000000000000000000000000000000000000000000000000000000028152600401602060405180830381600087803b15801561342357600080fd5b505af1158015613437573d6000803e3d6000fd5b505050506040513d602081101561344d57600080fd5b8101908080519060200190929190505050600260006101000a81548173ffffffffffffffffffffffffffffffffffffffff021916908373ffffffffffffffffffffffffffffffffffffffff1602179055506134ac600360085402612b3f565b505050565b6000806000806000600560009054906101000a900473ffffffffffffffffffffffffffffffffffffffff1673ffffffffffffffffffffffffffffffffffffffff1663209652556040518163ffffffff167c0100000000000000000000000000000000000000000000000000000000028152600401602060405180830381600087803b15801561353f57600080fd5b505af1158015613553573d6000803e3d6000fd5b505050506040513d602081101561356957600080fd5b81019080805190602001909291905050509350600660009054906101000a900473ffffffffffffffffffffffffffffffffffffffff1673ffffffffffffffffffffffffffffffffffffffff1663209652556040518163ffffffff167c0100000000000000000000000000000000000000000000000000000000028152600401602060405180830381600087803b15801561360257600080fd5b505af1158015613616573d6000803e3d6000fd5b505050506040513d602081101561362c57600080fd5b8101908080519060200190929190505050925082840391506064600754830281151561365457fe5b0490503073ffffffffffffffffffffffffffffffffffffffff163181111561383b577fec106815f3bcc94faea9ba36bcca01ef908f1279e98e9504ec6d5bce2d582410600460009054906101000a900473ffffffffffffffffffffffffffffffffffffffff16303073ffffffffffffffffffffffffffffffffffffffff16318403604051808473ffffffffffffffffffffffffffffffffffffffff1673ffffffffffffffffffffffffffffffffffffffff1681526020018373ffffffffffffffffffffffffffffffffffffffff1673ffffffffffffffffffffffffffffffffffffffff168152602001828152602001935050505060405180910390a1600460009054906101000a900473ffffffffffffffffffffffffffffffffffffffff1673ffffffffffffffffffffffffffffffffffffffff16632e1a7d4d3073ffffffffffffffffffffffffffffffffffffffff163183036040518263ffffffff167c010000000000000000000000000000000000000000000000000000000002815260040180828152602001915050602060405180830381600087803b1580156137fa57600080fd5b505af115801561380e573d6000803e3d6000fd5b505050506040513d602081101561382457600080fd5b8101908080519060200190929190505050506139b8565b3073ffffffffffffffffffffffffffffffffffffffff16318110156139b7577fec106815f3bcc94faea9ba36bcca01ef908f1279e98e9504ec6d5bce2d58241030600460009054906101000a900473ffffffffffffffffffffffffffffffffffffffff16833073ffffffffffffffffffffffffffffffffffffffff163103604051808473ffffffffffffffffffffffffffffffffffffffff1673ffffffffffffffffffffffffffffffffffffffff1681526020018373ffffffffffffffffffffffffffffffffffffffff1673ffffffffffffffffffffffffffffffffffffffff168152602001828152602001935050505060405180910390a1600460009054906101000a900473ffffffffffffffffffffffffffffffffffffffff1673ffffffffffffffffffffffffffffffffffffffff166108fc823073ffffffffffffffffffffffffffffffffffffffff1631039081150290604051600060405180830381858888f193505050501580156139b5573d6000803e3d6000fd5b505b5b7f2d5dc197df72567c922c23f4faa936a36edfd6f8d7520d0776a293ae43d8c1a6816040518082815260200191505060405180910390a1803073ffffffffffffffffffffffffffffffffffffffff16311494505050505090565b600560009054906101000a900473ffffffffffffffffffffffffffffffffffffffff1681565b60008173ffffffffffffffffffffffffffffffffffffffff163373ffffffffffffffffffffffffffffffffffffffff161480613af757508173ffffffffffffffffffffffffffffffffffffffff163273ffffffffffffffffffffffffffffffffffffffff16148015613af657506000809054906101000a900473ffffffffffffffffffffffffffffffffffffffff1673ffffffffffffffffffffffffffffffffffffffff163373ffffffffffffffffffffffffffffffffffffffff16145b5b90509190505600a165627a7a72305820efb55e1e116fb97241fa22c15ec892338b07bd6dcd88c8407a06608500d360a00029",
  "source": "pragma solidity ^0.4.11;\r\nimport \"std.sol\";\r\nimport \"Loggable.sol\";\r\nimport \"FeedBackedCall.sol\";\r\nimport \"TradingAccount.sol\";\r\n\r\n\r\ncontract CallSpread is owned, loggable {\r\n    event infoMargin(uint totalMargin);\r\n    event infoTime(uint initialTime, uint totalTime);\r\n\r\n    // Contract status\r\n    bool public             _isActive;\r\n    bool public             _isComplete;\r\n\r\n    // Participating addresses and accounts\r\n    address public          _buyer;\r\n    address public          _seller;\r\n    TradingAccount          _buyerAcct;\r\n    TradingAccount          _sellerAcct;\r\n\r\n    // Contract legs, i.e., call options\r\n    FeedBackedCall public   _buyerLeg;\r\n    FeedBackedCall public   _sellerLeg;\r\n\r\n    // Other information\r\n    uint public             _marginPct;\r\n    uint public             _maxTimeToMaturity;\r\n\r\n    function CallSpread() {\r\n        _isActive = false;\r\n        _isComplete = false;\r\n    }\r\n\r\n    function initialize(\r\n        address sellerAcct,\r\n        address buyerAcct,\r\n        address sellerLeg,\r\n        address feedProvider,\r\n        string feedName,\r\n        uint    sellerStrikePctOfMarketValue,\r\n        uint    notional,\r\n        uint    timeToMaturity) returns (bool) {\r\n\r\n        // Spawn mirrored call options with the same underlier and notional\r\n        // NOTE: disabled because of gas cost\r\n        // _sellerLeg = new FeedBackedCall();\r\n        _sellerLeg = FeedBackedCall(sellerLeg);\r\n        _sellerLeg.claim();\r\n        _sellerLeg.initialize(sellerAcct, buyerAcct, feedProvider, feedName,\r\n                              sellerStrikePctOfMarketValue, notional,\r\n                              timeToMaturity);\r\n        // _buyerLeg = new FeedBackedCall();\r\n    /*    _buyerLeg = FeedBackedCall(buyerLeg);\r\n        _buyerLeg.claim();\r\n        _buyerLeg.initialize(buyerAcct, sellerAcct, feedProvider, feedName,\r\n                             buyerStrikePctOfMarketValue, notional,\r\n                             timeToMaturity);\r\n\r\n        // Percentage difference in value of the legs to be held in escrow\r\n        _marginPct = marginPct;         */\r\n\r\n        // Record the maximum maturity of the legs\r\n  /*      _maxTimeToMaturity = _buyerLeg._timeToMaturity();\r\n        if (_maxTimeToMaturity < _sellerLeg._timeToMaturity()) {\r\n            _maxTimeToMaturity = _sellerLeg._timeToMaturity();\r\n        }\r\n\r\n        // Trading accounts\r\n        _buyerAcct = TradingAccount(buyerAcct);\r\n        _buyer = _buyerAcct._owner();\r\n        _sellerAcct = TradingAccount(sellerAcct);\r\n        _seller = _sellerAcct._owner();\r\n\r\n        // Authorize trading account of caller\r\n        authorizeTradingAccounts(_maxTimeToMaturity * 3);         */\r\n    }\r\n    \r\n    \r\n    \r\n    function initialize2(\r\n        address sellerAcct,\r\n        address buyerAcct,\r\n        address buyerLeg,\r\n        address feedProvider,\r\n        string feedName,\r\n        uint    buyerStrikePctOfMarketValue,\r\n        uint    notional,\r\n        uint    timeToMaturity,\r\n        uint    marginPct) {\r\n         _buyerLeg = FeedBackedCall(buyerLeg);\r\n        _buyerLeg.claim();\r\n        _buyerLeg.initialize(buyerAcct, sellerAcct, feedProvider, feedName,\r\n                             buyerStrikePctOfMarketValue, notional,\r\n                             timeToMaturity);\r\n\r\n        // Percentage difference in value of the legs to be held in escrow\r\n        _marginPct = marginPct;\r\n    }\r\n    \r\n    function  initialize3(\r\n        address sellerAcct,\r\n        address buyerAcct){\r\n        \r\n         // Record the maximum maturity of the legs\r\n        _maxTimeToMaturity = _buyerLeg._timeToMaturity();\r\n        if (_maxTimeToMaturity < _sellerLeg._timeToMaturity()) {\r\n            _maxTimeToMaturity = _sellerLeg._timeToMaturity();\r\n        }\r\n\r\n        // Trading accounts\r\n        _buyerAcct = TradingAccount(buyerAcct);\r\n        _buyer = _buyerAcct._owner();\r\n        _sellerAcct = TradingAccount(sellerAcct);\r\n        _seller = _sellerAcct._owner();\r\n\r\n        // Authorize trading account of caller\r\n        authorizeTradingAccounts(_maxTimeToMaturity * 3);\r\n        \r\n    }\r\n    \r\n    \r\n    \r\n    \r\n    \r\n    \r\n\r\n    // Authorize trading accounts for margin calls\r\n    function authorizeTradingAccounts(uint buffer) returns (bool) {\r\n        bool buyerAuthed = true;\r\n        bool sellerAuthed = true;\r\n\r\n        if (initiatedBy(_buyer)) {\r\n            buyerAuthed = _buyerAcct.authorize(this,\r\n                                               _maxTimeToMaturity + buffer);\r\n            Authorization(address(_buyerAcct),\r\n                          toText(buyerAuthed));\r\n        }\r\n        if (initiatedBy(_seller)) {\r\n            sellerAuthed = _sellerAcct.authorize(this,\r\n                                                 _maxTimeToMaturity + buffer);\r\n            Authorization(address(_sellerAcct),\r\n                          toText(sellerAuthed));\r\n        }\r\n        return (buyerAuthed && sellerAuthed);\r\n    }\r\n\r\n    // The receiver validates the contract with the same parameters\r\n    function validate() returns (bool) {\r\n        if (_isActive || _isComplete) {\r\n            Error(\"Validation requires inactive contract\");\r\n            return true;\r\n        }\r\n        // Authorize trading account of caller. This is assumed to be\r\n        // the counterparty of the initializer of this contract.\r\n        authorizeTradingAccounts(_maxTimeToMaturity * 3);\r\n\r\n        // Need authorized trading accounts\r\n        if (!_buyerAcct.isAuthorized(this) ||\r\n            !_sellerAcct.isAuthorized(this)) {\r\n            Error(\"Validation requires authorized trading accounts\");\r\n            return false;\r\n        }\r\n\r\n        // Validate the legs\r\n//        if (!_buyerLeg.validate() || !_sellerLeg.validate()) {\r\n//            return false;\r\n//        }\r\n\r\n        bool buyerValidated = _buyerLeg.validate();\r\n        Validation(address(_buyerLeg),\r\n                   toText(buyerValidated));\r\n        if (!buyerValidated) {\r\n            Error(\"Validation requires validated buyer leg\");\r\n            return false;\r\n        }\r\n\r\n        bool sellerValidated = _sellerLeg.validate();\r\n        Validation(address(_sellerLeg),\r\n                   toText(sellerValidated));\r\n        if (!sellerValidated) {\r\n            Error(\"Validation requires validated seller leg\");\r\n            return false;\r\n        }\r\n\r\n        _isActive = true;\r\n        Validation(address(this),\r\n                   toText(true));\r\n        return true;\r\n    }\r\n\r\n    // Withdraw and nullify the contract if not validated\r\n    function withdraw() returns (bool) {\r\n        if (_isActive) {\r\n            Error(\"Withdrawal requires inactive contract\");\r\n            return false;\r\n        }\r\n        if (initiatedBy(_buyer) || initiatedBy(_seller)) {\r\n            Error(\"Withdrawal must be initiated by participant\");\r\n            return false;\r\n        }\r\n        // Withdraw from both legs\r\n        bool buyerWithdrawn = _buyerLeg.withdraw();\r\n        Withdrawal(address(_buyerLeg),\r\n                   toText(buyerWithdrawn));\r\n\r\n        bool sellerWithdrawn = _sellerLeg.withdraw();\r\n        Withdrawal(address(_sellerLeg),\r\n                   toText(sellerWithdrawn));\r\n\r\n        // suicide(_owner);\r\n        _owner.send(this.balance);\r\n        _isComplete = true;\r\n        Withdrawal(address(this),\r\n                   toText(true));\r\n        return true;\r\n    }\r\n\r\n    // Allow the buyer and seller to exercise their respective options\r\n    function exercise() returns (bool) {\r\n        bool buyerExercised = true;\r\n        bool sellerExercised = true;\r\n\r\n        if (initiatedBy(_buyer)) {\r\n            returnMargin();\r\n            buyerExercised = _buyerLeg.exercise();\r\n            Exercise(address(_buyerLeg),\r\n                     toText(buyerExercised));\r\n        }\r\n        if (initiatedBy(_seller)) {\r\n            sellerExercised = _sellerLeg.exercise();\r\n            Exercise(address(_sellerLeg),\r\n                     toText(sellerExercised));\r\n        }\r\n\r\n        if (_sellerLeg._isComplete() && _buyerLeg._isComplete()) {\r\n            _isActive = false;\r\n            _isComplete = true;\r\n            Exercise(address(this),\r\n                     toText(true));\r\n        }\r\n        return (buyerExercised && sellerExercised);\r\n    }\r\n\r\n    // Rebalance the margin based on the current value of the underliers\r\n    function rebalanceMargin() returns (bool) {\r\n        int buyerValue = _buyerLeg.getValue();\r\n        int sellerValue = _sellerLeg.getValue();\r\n\r\n        uint difference = uint(buyerValue - sellerValue);\r\n        uint marginAmount = difference * _marginPct / 100;\r\n\r\n        if (marginAmount > this.balance) {\r\n            CashFlow(address(_sellerAcct),\r\n                     address(this),\r\n                     marginAmount - this.balance);\r\n            _sellerAcct.withdraw(marginAmount - this.balance);\r\n        } else if (marginAmount < this.balance) {\r\n            CashFlow(address(this),\r\n                     address(_sellerAcct),\r\n                     this.balance - marginAmount);\r\n            _sellerAcct.transfer(this.balance - marginAmount);\r\n        }\r\n        infoMargin(marginAmount);\r\n        return this.balance == marginAmount;\r\n    }\r\n\r\n    // On maturity, return the escrowed margin to the seller\r\n    function returnMargin()  {\r\n        if (_buyerLeg.isMature()) {\r\n            CashFlow(address(this),\r\n                     address(_sellerAcct),\r\n                     this.balance);\r\n            return  _sellerAcct.transfer(this.balance);\r\n        }\r\n        return;\r\n    }\r\n\r\n    // ===== Utility functions ===== //\r\n///////////////////////////////////////////////////////////////\r\n//funzione di ping da analizzare!\r\n    function ping(uint initialTime) returns (bool) {\r\n        return rebalanceMargin();\r\n        // timestamp del block, evento nel log\r\n        infoTime(initialTime, block.timestamp);\r\n    }\r\n\r\n    function getSellerOption() returns (address) {\r\n        return address(_sellerLeg);\r\n    }\r\n\r\n    function getBuyerOption() returns (address) {\r\n        return address(_buyerLeg);\r\n    }\r\n\r\n    function initiatedBy(address addr) private returns (bool) {\r\n        return msg.sender == addr ||\r\n               (tx.origin == addr && msg.sender == _owner);\r\n    }\r\n}\r\n",
  "sourcePath": "C:/Users/bigfo/Desktop/progetto tech/TesiAndreaGurioliContracts/contracts/CallSpread.sol",
  "compiler": {
    "name": "solc",
    "version": "0.4.26+commit.4563c3fc.Emscripten.clang"
  },
  "schemaVersion": "3.0.20",
  "updatedAt": "2020-02-01T15:02:52.513Z",
  "devdoc": {
    "methods": {}
  },
  "userdoc": {
    "methods": {
      "ping(uint256)": {
        "notice": "////////////////////////////////////////////////////////////"
      }
    }
  }
}