{
  "contractName": "FeedBackedCall",
  "abi": [
    {
      "constant": false,
      "inputs": [],
      "name": "nameRegAddress",
      "outputs": [
        {
          "name": "",
          "type": "address"
        }
      ],
      "payable": false,
      "stateMutability": "nonpayable",
      "type": "function"
    },
    {
      "constant": true,
      "inputs": [],
      "name": "_feedName",
      "outputs": [
        {
          "name": "",
          "type": "string"
        }
      ],
      "payable": false,
      "stateMutability": "view",
      "type": "function"
    },
    {
      "constant": true,
      "inputs": [],
      "name": "_strikePrice",
      "outputs": [
        {
          "name": "",
          "type": "uint256"
        }
      ],
      "payable": false,
      "stateMutability": "view",
      "type": "function"
    },
    {
      "constant": true,
      "inputs": [],
      "name": "_notional",
      "outputs": [
        {
          "name": "",
          "type": "uint256"
        }
      ],
      "payable": false,
      "stateMutability": "view",
      "type": "function"
    },
    {
      "constant": true,
      "inputs": [],
      "name": "_seller",
      "outputs": [
        {
          "name": "",
          "type": "address"
        }
      ],
      "payable": false,
      "stateMutability": "view",
      "type": "function"
    },
    {
      "constant": true,
      "inputs": [],
      "name": "_buyer",
      "outputs": [
        {
          "name": "",
          "type": "address"
        }
      ],
      "payable": false,
      "stateMutability": "view",
      "type": "function"
    },
    {
      "constant": false,
      "inputs": [],
      "name": "claim",
      "outputs": [],
      "payable": false,
      "stateMutability": "nonpayable",
      "type": "function"
    },
    {
      "constant": true,
      "inputs": [],
      "name": "_isActive",
      "outputs": [
        {
          "name": "",
          "type": "bool"
        }
      ],
      "payable": false,
      "stateMutability": "view",
      "type": "function"
    },
    {
      "constant": true,
      "inputs": [],
      "name": "_isComplete",
      "outputs": [
        {
          "name": "",
          "type": "bool"
        }
      ],
      "payable": false,
      "stateMutability": "view",
      "type": "function"
    },
    {
      "constant": false,
      "inputs": [
        {
          "name": "name",
          "type": "bytes32"
        }
      ],
      "name": "named",
      "outputs": [
        {
          "name": "",
          "type": "address"
        }
      ],
      "payable": false,
      "stateMutability": "nonpayable",
      "type": "function"
    },
    {
      "constant": false,
      "inputs": [
        {
          "name": "newOwner",
          "type": "address"
        }
      ],
      "name": "changeOwner",
      "outputs": [],
      "payable": false,
      "stateMutability": "nonpayable",
      "type": "function"
    },
    {
      "constant": true,
      "inputs": [],
      "name": "_owner",
      "outputs": [
        {
          "name": "",
          "type": "address"
        }
      ],
      "payable": false,
      "stateMutability": "view",
      "type": "function"
    },
    {
      "constant": true,
      "inputs": [],
      "name": "_timeToMaturity",
      "outputs": [
        {
          "name": "",
          "type": "uint256"
        }
      ],
      "payable": false,
      "stateMutability": "view",
      "type": "function"
    },
    {
      "constant": false,
      "inputs": [
        {
          "name": "flag",
          "type": "bool"
        }
      ],
      "name": "toText",
      "outputs": [
        {
          "name": "",
          "type": "bytes"
        }
      ],
      "payable": false,
      "stateMutability": "nonpayable",
      "type": "function"
    },
    {
      "constant": true,
      "inputs": [],
      "name": "_startTime",
      "outputs": [
        {
          "name": "",
          "type": "uint256"
        }
      ],
      "payable": false,
      "stateMutability": "view",
      "type": "function"
    },
    {
      "inputs": [],
      "payable": false,
      "stateMutability": "nonpayable",
      "type": "constructor"
    },
    {
      "anonymous": false,
      "inputs": [
        {
          "indexed": false,
          "name": "message",
          "type": "bytes"
        }
      ],
      "name": "Error",
      "type": "event"
    },
    {
      "anonymous": false,
      "inputs": [
        {
          "indexed": false,
          "name": "addr",
          "type": "address"
        },
        {
          "indexed": false,
          "name": "outcome",
          "type": "bytes"
        }
      ],
      "name": "Authorization",
      "type": "event"
    },
    {
      "anonymous": false,
      "inputs": [
        {
          "indexed": false,
          "name": "addr",
          "type": "address"
        },
        {
          "indexed": false,
          "name": "outcome",
          "type": "bytes"
        }
      ],
      "name": "Validation",
      "type": "event"
    },
    {
      "anonymous": false,
      "inputs": [
        {
          "indexed": false,
          "name": "addr",
          "type": "address"
        },
        {
          "indexed": false,
          "name": "outcome",
          "type": "bytes"
        }
      ],
      "name": "Withdrawal",
      "type": "event"
    },
    {
      "anonymous": false,
      "inputs": [
        {
          "indexed": false,
          "name": "addr",
          "type": "address"
        },
        {
          "indexed": false,
          "name": "outcome",
          "type": "bytes"
        }
      ],
      "name": "Exercise",
      "type": "event"
    },
    {
      "anonymous": false,
      "inputs": [
        {
          "indexed": false,
          "name": "from",
          "type": "address"
        },
        {
          "indexed": false,
          "name": "to",
          "type": "address"
        },
        {
          "indexed": false,
          "name": "amount",
          "type": "uint256"
        }
      ],
      "name": "CashFlow",
      "type": "event"
    },
    {
      "constant": false,
      "inputs": [
        {
          "name": "sellerAcct",
          "type": "address"
        },
        {
          "name": "buyerAcct",
          "type": "address"
        },
        {
          "name": "feedProvider",
          "type": "address"
        },
        {
          "name": "feedName",
          "type": "string"
        },
        {
          "name": "strikePctOfMarketValue",
          "type": "uint256"
        },
        {
          "name": "notional",
          "type": "uint256"
        },
        {
          "name": "timeToMaturity",
          "type": "uint256"
        }
      ],
      "name": "initialize",
      "outputs": [
        {
          "name": "",
          "type": "bool"
        }
      ],
      "payable": false,
      "stateMutability": "nonpayable",
      "type": "function"
    },
    {
      "constant": false,
      "inputs": [
        {
          "name": "buffer",
          "type": "uint256"
        }
      ],
      "name": "authorizeTradingAccounts",
      "outputs": [
        {
          "name": "",
          "type": "bool"
        }
      ],
      "payable": false,
      "stateMutability": "nonpayable",
      "type": "function"
    },
    {
      "constant": false,
      "inputs": [],
      "name": "validate",
      "outputs": [
        {
          "name": "",
          "type": "bool"
        }
      ],
      "payable": false,
      "stateMutability": "nonpayable",
      "type": "function"
    },
    {
      "constant": false,
      "inputs": [],
      "name": "withdraw",
      "outputs": [
        {
          "name": "",
          "type": "bool"
        }
      ],
      "payable": false,
      "stateMutability": "nonpayable",
      "type": "function"
    },
    {
      "constant": false,
      "inputs": [],
      "name": "exercise",
      "outputs": [
        {
          "name": "",
          "type": "bool"
        }
      ],
      "payable": false,
      "stateMutability": "nonpayable",
      "type": "function"
    },
    {
      "constant": false,
      "inputs": [],
      "name": "isMature",
      "outputs": [
        {
          "name": "",
          "type": "bool"
        }
      ],
      "payable": false,
      "stateMutability": "nonpayable",
      "type": "function"
    },
    {
      "constant": false,
      "inputs": [],
      "name": "getMoneyness",
      "outputs": [
        {
          "name": "",
          "type": "int256"
        }
      ],
      "payable": false,
      "stateMutability": "nonpayable",
      "type": "function"
    },
    {
      "constant": false,
      "inputs": [],
      "name": "getSpotPrice",
      "outputs": [
        {
          "name": "",
          "type": "uint256"
        }
      ],
      "payable": false,
      "stateMutability": "nonpayable",
      "type": "function"
    },
    {
      "constant": false,
      "inputs": [],
      "name": "getValue",
      "outputs": [
        {
          "name": "",
          "type": "int256"
        }
      ],
      "payable": false,
      "stateMutability": "nonpayable",
      "type": "function"
    }
  ],
  "bytecode": "0x608060405234801561001057600080fd5b50336000806101000a81548173ffffffffffffffffffffffffffffffffffffffff021916908373ffffffffffffffffffffffffffffffffffffffff16021790555060008060146101000a81548160ff02191690831515021790555060008060156101000a81548160ff02191690831515021790555061289d806100946000396000f30060806040526004361061013e576000357c0100000000000000000000000000000000000000000000000000000000900463ffffffff16806306005754146101435780630b4a26da1461019a57806316c9b8801461022a5780631990da7a14610255578063209652551461028057806325787798146102ab5780632a7ce026146103aa5780633ccfd60b146104015780634355f1ec146104305780634e71d92d146104875780636901f6681461049e5780638ec89e4f146104cd578063913bb263146104fc578063a550f86d1461052b578063a6f9dae11461059c578063ae4e7fdf146105df578063b2bdfa7b1461060e578063b570571e14610665578063caf19e5a14610690578063d32cb0fe14610738578063dc76fabc14610767578063dd9bf99814610792578063ebf31253146107d7578063fa1acb5c14610802575b600080fd5b34801561014f57600080fd5b5061015861082d565b604051808273ffffffffffffffffffffffffffffffffffffffff1673ffffffffffffffffffffffffffffffffffffffff16815260200191505060405180910390f35b3480156101a657600080fd5b506101af610849565b6040518080602001828103825283818151815260200191508051906020019080838360005b838110156101ef5780820151818401526020810190506101d4565b50505050905090810190601f16801561021c5780820380516001836020036101000a031916815260200191505b509250505060405180910390f35b34801561023657600080fd5b5061023f6108e7565b6040518082815260200191505060405180910390f35b34801561026157600080fd5b5061026a6108ed565b6040518082815260200191505060405180910390f35b34801561028c57600080fd5b506102956108f3565b6040518082815260200191505060405180910390f35b3480156102b757600080fd5b50610390600480360381019080803573ffffffffffffffffffffffffffffffffffffffff169060200190929190803573ffffffffffffffffffffffffffffffffffffffff169060200190929190803573ffffffffffffffffffffffffffffffffffffffff169060200190929190803590602001908201803590602001908080601f016020809104026020016040519081016040528093929190818152602001838380828437820191505050505050919291929080359060200190929190803590602001909291908035906020019092919050505061090a565b604051808215151515815260200191505060405180910390f35b3480156103b657600080fd5b506103bf610cc5565b604051808273ffffffffffffffffffffffffffffffffffffffff1673ffffffffffffffffffffffffffffffffffffffff16815260200191505060405180910390f35b34801561040d57600080fd5b50610416610ceb565b604051808215151515815260200191505060405180910390f35b34801561043c57600080fd5b50610445610ffb565b604051808273ffffffffffffffffffffffffffffffffffffffff1673ffffffffffffffffffffffffffffffffffffffff16815260200191505060405180910390f35b34801561049357600080fd5b5061049c611021565b005b3480156104aa57600080fd5b506104b36111af565b604051808215151515815260200191505060405180910390f35b3480156104d957600080fd5b506104e2611613565b604051808215151515815260200191505060405180910390f35b34801561050857600080fd5b50610511611626565b604051808215151515815260200191505060405180910390f35b34801561053757600080fd5b5061055a6004803603810190808035600019169060200190929190505050611639565b604051808273ffffffffffffffffffffffffffffffffffffffff1673ffffffffffffffffffffffffffffffffffffffff16815260200191505060405180910390f35b3480156105a857600080fd5b506105dd600480360381019080803573ffffffffffffffffffffffffffffffffffffffff1690602001909291905050506116fb565b005b3480156105eb57600080fd5b506105f4611794565b604051808215151515815260200191505060405180910390f35b34801561061a57600080fd5b506106236117bb565b604051808273ffffffffffffffffffffffffffffffffffffffff1673ffffffffffffffffffffffffffffffffffffffff16815260200191505060405180910390f35b34801561067157600080fd5b5061067a6117e0565b6040518082815260200191505060405180910390f35b34801561069c57600080fd5b506106bd6004803603810190808035151590602001909291905050506117e6565b6040518080602001828103825283818151815260200191508051906020019080838360005b838110156106fd5780820151818401526020810190506106e2565b50505050905090810190601f16801561072a5780820380516001836020036101000a031916815260200191505b509250505060405180910390f35b34801561074457600080fd5b5061074d611869565b604051808215151515815260200191505060405180910390f35b34801561077357600080fd5b5061077c6120cd565b6040518082815260200191505060405180910390f35b34801561079e57600080fd5b506107bd60048036038101908080359060200190929190505050612223565b604051808215151515815260200191505060405180910390f35b3480156107e357600080fd5b506107ec6126a5565b6040518082815260200191505060405180910390f35b34801561080e57600080fd5b50610817612700565b6040518082815260200191505060405180910390f35b600073985509582b2c38010bfaa3c8d2be60022d3d00da905090565b60058054600181600116156101000203166002900480601f0160208091040260200160405190810160405280929190818152602001828054600181600116156101000203166002900480156108df5780601f106108b4576101008083540402835291602001916108df565b820191906000526020600020905b8154815290600101906020018083116108c257829003601f168201915b505050505081565b60065481565b60075481565b60006007546006546109036120cd565b0302905090565b600086600360006101000a81548173ffffffffffffffffffffffffffffffffffffffff021916908373ffffffffffffffffffffffffffffffffffffffff160217905550600360009054906101000a900473ffffffffffffffffffffffffffffffffffffffff1673ffffffffffffffffffffffffffffffffffffffff1663b2bdfa7b6040518163ffffffff167c0100000000000000000000000000000000000000000000000000000000028152600401602060405180830381600087803b1580156109d357600080fd5b505af11580156109e7573d6000803e3d6000fd5b505050506040513d60208110156109fd57600080fd5b8101908080519060200190929190505050600160006101000a81548173ffffffffffffffffffffffffffffffffffffffff021916908373ffffffffffffffffffffffffffffffffffffffff16021790555087600460006101000a81548173ffffffffffffffffffffffffffffffffffffffff021916908373ffffffffffffffffffffffffffffffffffffffff160217905550600460009054906101000a900473ffffffffffffffffffffffffffffffffffffffff1673ffffffffffffffffffffffffffffffffffffffff1663b2bdfa7b6040518163ffffffff167c0100000000000000000000000000000000000000000000000000000000028152600401602060405180830381600087803b158015610b1557600080fd5b505af1158015610b29573d6000803e3d6000fd5b505050506040513d6020811015610b3f57600080fd5b8101908080519060200190929190505050600260006101000a81548173ffffffffffffffffffffffffffffffffffffffff021916908373ffffffffffffffffffffffffffffffffffffffff16021790555060008673ffffffffffffffffffffffffffffffffffffffff161415610c1d57610bd87f65746865722d63616d702f70726963652d666565640000000000000000000000611639565b600860006101000a81548173ffffffffffffffffffffffffffffffffffffffff021916908373ffffffffffffffffffffffffffffffffffffffff160217905550610c5f565b85600860006101000a81548173ffffffffffffffffffffffffffffffffffffffff021916908373ffffffffffffffffffffffffffffffffffffffff1602179055505b8460059080519060200190610c759291906127cc565b50606484610c816120cd565b02811515610c8b57fe5b04600681905550826007819055508160098190555042600a81905550610cb5600360095402612223565b5060019050979650505050505050565b600260009054906101000a900473ffffffffffffffffffffffffffffffffffffffff1681565b60008060149054906101000a900460ff1615610d98577fc75fb740d515c4fc862cc5c8f95343266e804872e7206e24f75751db41c4bcdc6040518080602001828103825260258152602001807f5769746864726177616c20726571756972657320696e61637469766520636f6e81526020017f747261637400000000000000000000000000000000000000000000000000000081525060400191505060405180910390a160009050610ff8565b610dc3600160009054906101000a900473ffffffffffffffffffffffffffffffffffffffff16612706565b80610df55750610df4600260009054906101000a900473ffffffffffffffffffffffffffffffffffffffff16612706565b5b15610e91577fc75fb740d515c4fc862cc5c8f95343266e804872e7206e24f75751db41c4bcdc60405180806020018281038252602b8152602001807f5769746864726177616c206d75737420626520696e697469617465642062792081526020017f7061727469636970616e7400000000000000000000000000000000000000000081525060400191505060405180910390a160009050610ff8565b6000809054906101000a900473ffffffffffffffffffffffffffffffffffffffff1673ffffffffffffffffffffffffffffffffffffffff166108fc3073ffffffffffffffffffffffffffffffffffffffff16319081150290604051600060405180830381858888f19350505050506001600060156101000a81548160ff0219169083151502179055507fe5931718848ec5427509210911211a718db19ddb36fde61b127b34eb80019ea930610f4660016117e6565b604051808373ffffffffffffffffffffffffffffffffffffffff1673ffffffffffffffffffffffffffffffffffffffff16815260200180602001828103825283818151815260200191508051906020019080838360005b83811015610fb8578082015181840152602081019050610f9d565b50505050905090810190601f168015610fe55780820380516001836020036101000a031916815260200191505b50935050505060405180910390a1600190505b90565b600160009054906101000a900473ffffffffffffffffffffffffffffffffffffffff1681565b6000809054906101000a900473ffffffffffffffffffffffffffffffffffffffff1673ffffffffffffffffffffffffffffffffffffffff163273ffffffffffffffffffffffffffffffffffffffff1614801561116757506000809054906101000a900473ffffffffffffffffffffffffffffffffffffffff1673ffffffffffffffffffffffffffffffffffffffff163373ffffffffffffffffffffffffffffffffffffffff1663b2bdfa7b6040518163ffffffff167c0100000000000000000000000000000000000000000000000000000000028152600401602060405180830381600087803b15801561111457600080fd5b505af1158015611128573d6000803e3d6000fd5b505050506040513d602081101561113e57600080fd5b810190808051906020019092919050505073ffffffffffffffffffffffffffffffffffffffff16145b156111ad57336000806101000a81548173ffffffffffffffffffffffffffffffffffffffff021916908373ffffffffffffffffffffffffffffffffffffffff1602179055505b565b60008060149054906101000a900460ff16806111d75750600060159054906101000a900460ff165b15611273577fc75fb740d515c4fc862cc5c8f95343266e804872e7206e24f75751db41c4bcdc6040518080602001828103825260258152602001807f56616c69646174696f6e20726571756972657320696e61637469766520636f6e81526020017f747261637400000000000000000000000000000000000000000000000000000081525060400191505060405180910390a160019050611610565b611281600360095402612223565b50600360009054906101000a900473ffffffffffffffffffffffffffffffffffffffff1673ffffffffffffffffffffffffffffffffffffffff1663fe9fbb80306040518263ffffffff167c0100000000000000000000000000000000000000000000000000000000028152600401808273ffffffffffffffffffffffffffffffffffffffff1673ffffffffffffffffffffffffffffffffffffffff168152602001915050602060405180830381600087803b15801561133f57600080fd5b505af1158015611353573d6000803e3d6000fd5b505050506040513d602081101561136957600080fd5b8101908080519060200190929190505050158061147b5750600460009054906101000a900473ffffffffffffffffffffffffffffffffffffffff1673ffffffffffffffffffffffffffffffffffffffff1663fe9fbb80306040518263ffffffff167c0100000000000000000000000000000000000000000000000000000000028152600401808273ffffffffffffffffffffffffffffffffffffffff1673ffffffffffffffffffffffffffffffffffffffff168152602001915050602060405180830381600087803b15801561143e57600080fd5b505af1158015611452573d6000803e3d6000fd5b505050506040513d602081101561146857600080fd5b8101908080519060200190929190505050155b15611517577fc75fb740d515c4fc862cc5c8f95343266e804872e7206e24f75751db41c4bcdc60405180806020018281038252602f8152602001807f56616c69646174696f6e20726571756972657320617574686f72697a6564207481526020017f726164696e67206163636f756e7473000000000000000000000000000000000081525060400191505060405180910390a160009050611610565b6001600060146101000a81548160ff0219169083151502179055507fb44e0af213ece6f3aab6c5d4ac88b2fb69bc37851ea73e7b11718e585e7b07813061155e60016117e6565b604051808373ffffffffffffffffffffffffffffffffffffffff1673ffffffffffffffffffffffffffffffffffffffff16815260200180602001828103825283818151815260200191508051906020019080838360005b838110156115d05780820151818401526020810190506115b5565b50505050905090810190601f1680156115fd5780820380516001836020036101000a031916815260200191505b50935050505060405180910390a1600190505b90565b600060149054906101000a900460ff1681565b600060159054906101000a900460ff1681565b600061164361082d565b73ffffffffffffffffffffffffffffffffffffffff1663bb34534c836040518263ffffffff167c0100000000000000000000000000000000000000000000000000000000028152600401808260001916600019168152602001915050602060405180830381600087803b1580156116b957600080fd5b505af11580156116cd573d6000803e3d6000fd5b505050506040513d60208110156116e357600080fd5b81019080805190602001909291905050509050919050565b6000809054906101000a900473ffffffffffffffffffffffffffffffffffffffff1673ffffffffffffffffffffffffffffffffffffffff163373ffffffffffffffffffffffffffffffffffffffff16141561179157806000806101000a81548173ffffffffffffffffffffffffffffffffffffffff021916908373ffffffffffffffffffffffffffffffffffffffff1602179055505b50565b600080600a5442039050600954811015156117b257600191506117b7565b600091505b5090565b6000809054906101000a900473ffffffffffffffffffffffffffffffffffffffff1681565b60095481565b6060811561182b576040805190810160405280600781526020017f53554343455353000000000000000000000000000000000000000000000000008152509050611864565b6040805190810160405280600781526020017f4641494c5552450000000000000000000000000000000000000000000000000081525090505b919050565b6000611896600160009054906101000a900473ffffffffffffffffffffffffffffffffffffffff16612706565b1515611933577fc75fb740d515c4fc862cc5c8f95343266e804872e7206e24f75751db41c4bcdc6040518080602001828103825260238152602001807f4578657263697365206d75737420626520696e6974696174656420627920627581526020017f796572000000000000000000000000000000000000000000000000000000000081525060400191505060405180910390a1600090506120ca565b61193b611794565b15156119b2577fc75fb740d515c4fc862cc5c8f95343266e804872e7206e24f75751db41c4bcdc60405180806020018281038252601a8152602001807f4578657263697365207265717569726573206d6174757269747900000000000081525060200191505060405180910390a1600090506120ca565b60003073ffffffffffffffffffffffffffffffffffffffff16311115611b18577fec106815f3bcc94faea9ba36bcca01ef908f1279e98e9504ec6d5bce2d582410306000809054906101000a900473ffffffffffffffffffffffffffffffffffffffff163073ffffffffffffffffffffffffffffffffffffffff1631604051808473ffffffffffffffffffffffffffffffffffffffff1673ffffffffffffffffffffffffffffffffffffffff1681526020018373ffffffffffffffffffffffffffffffffffffffff1673ffffffffffffffffffffffffffffffffffffffff168152602001828152602001935050505060405180910390a16000809054906101000a900473ffffffffffffffffffffffffffffffffffffffff1673ffffffffffffffffffffffffffffffffffffffff166108fc3073ffffffffffffffffffffffffffffffffffffffff16319081150290604051600060405180830381858888f19350505050505b600360009054906101000a900473ffffffffffffffffffffffffffffffffffffffff1673ffffffffffffffffffffffffffffffffffffffff16632e1a7d4d600754600654026040518263ffffffff167c010000000000000000000000000000000000000000000000000000000002815260040180828152602001915050602060405180830381600087803b158015611baf57600080fd5b505af1158015611bc3573d6000803e3d6000fd5b505050506040513d6020811015611bd957600080fd5b8101908080519060200190929190505050507fec106815f3bcc94faea9ba36bcca01ef908f1279e98e9504ec6d5bce2d582410600360009054906101000a900473ffffffffffffffffffffffffffffffffffffffff16600460009054906101000a900473ffffffffffffffffffffffffffffffffffffffff163073ffffffffffffffffffffffffffffffffffffffff1631604051808473ffffffffffffffffffffffffffffffffffffffff1673ffffffffffffffffffffffffffffffffffffffff1681526020018373ffffffffffffffffffffffffffffffffffffffff1673ffffffffffffffffffffffffffffffffffffffff168152602001828152602001935050505060405180910390a1600460009054906101000a900473ffffffffffffffffffffffffffffffffffffffff1673ffffffffffffffffffffffffffffffffffffffff166108fc3073ffffffffffffffffffffffffffffffffffffffff16319081150290604051600060405180830381858888f19350505050158015611d64573d6000803e3d6000fd5b50600460009054906101000a900473ffffffffffffffffffffffffffffffffffffffff1673ffffffffffffffffffffffffffffffffffffffff16632e1a7d4d600754611dae6120cd565b026040518263ffffffff167c010000000000000000000000000000000000000000000000000000000002815260040180828152602001915050602060405180830381600087803b158015611e0157600080fd5b505af1158015611e15573d6000803e3d6000fd5b505050506040513d6020811015611e2b57600080fd5b8101908080519060200190929190505050507fec106815f3bcc94faea9ba36bcca01ef908f1279e98e9504ec6d5bce2d582410600460009054906101000a900473ffffffffffffffffffffffffffffffffffffffff16600360009054906101000a900473ffffffffffffffffffffffffffffffffffffffff163073ffffffffffffffffffffffffffffffffffffffff1631604051808473ffffffffffffffffffffffffffffffffffffffff1673ffffffffffffffffffffffffffffffffffffffff1681526020018373ffffffffffffffffffffffffffffffffffffffff1673ffffffffffffffffffffffffffffffffffffffff168152602001828152602001935050505060405180910390a1600360009054906101000a900473ffffffffffffffffffffffffffffffffffffffff1673ffffffffffffffffffffffffffffffffffffffff166108fc3073ffffffffffffffffffffffffffffffffffffffff16319081150290604051600060405180830381858888f19350505050158015611fb6573d6000803e3d6000fd5b5060008060146101000a81548160ff0219169083151502179055506001600060156101000a81548160ff0219169083151502179055507fe593aea7df942d99ef64601dc3fa550d7c204bd3bf4f5f317af7bd1b237739fd3061201860016117e6565b604051808373ffffffffffffffffffffffffffffffffffffffff1673ffffffffffffffffffffffffffffffffffffffff16815260200180602001828103825283818151815260200191508051906020019080838360005b8381101561208a57808201518184015260208101905061206f565b50505050905090810190601f1680156120b75780820380516001836020036101000a031916815260200191505b50935050505060405180910390a1600190505b90565b6000600860009054906101000a900473ffffffffffffffffffffffffffffffffffffffff1673ffffffffffffffffffffffffffffffffffffffff1663524f388960056040518263ffffffff167c010000000000000000000000000000000000000000000000000000000002815260040180806020018281038252838181546001816001161561010002031660029004815260200191508054600181600116156101000203166002900480156121c35780601f10612198576101008083540402835291602001916121c3565b820191906000526020600020905b8154815290600101906020018083116121a657829003601f168201915b505092505050602060405180830381600087803b1580156121e357600080fd5b505af11580156121f7573d6000803e3d6000fd5b505050506040513d602081101561220d57600080fd5b8101908080519060200190929190505050905090565b6000806000600191506001905061225b600160009054906101000a900473ffffffffffffffffffffffffffffffffffffffff16612706565b1561246157600360009054906101000a900473ffffffffffffffffffffffffffffffffffffffff1673ffffffffffffffffffffffffffffffffffffffff1663c1dbd9b23086600954016040518363ffffffff167c0100000000000000000000000000000000000000000000000000000000028152600401808373ffffffffffffffffffffffffffffffffffffffff1673ffffffffffffffffffffffffffffffffffffffff16815260200182815260200192505050602060405180830381600087803b15801561232957600080fd5b505af115801561233d573d6000803e3d6000fd5b505050506040513d602081101561235357600080fd5b810190808051906020019092919050505091507f70ff76a87b888f32d6cf303cd228f8cf96566a85d44b969bf435422de2fa95da600360009054906101000a900473ffffffffffffffffffffffffffffffffffffffff166123b3846117e6565b604051808373ffffffffffffffffffffffffffffffffffffffff1673ffffffffffffffffffffffffffffffffffffffff16815260200180602001828103825283818151815260200191508051906020019080838360005b8381101561242557808201518184015260208101905061240a565b50505050905090810190601f1680156124525780820380516001836020036101000a031916815260200191505b50935050505060405180910390a15b61248c600260009054906101000a900473ffffffffffffffffffffffffffffffffffffffff16612706565b1561269257600460009054906101000a900473ffffffffffffffffffffffffffffffffffffffff1673ffffffffffffffffffffffffffffffffffffffff1663c1dbd9b23086600954016040518363ffffffff167c0100000000000000000000000000000000000000000000000000000000028152600401808373ffffffffffffffffffffffffffffffffffffffff1673ffffffffffffffffffffffffffffffffffffffff16815260200182815260200192505050602060405180830381600087803b15801561255a57600080fd5b505af115801561256e573d6000803e3d6000fd5b505050506040513d602081101561258457600080fd5b810190808051906020019092919050505090507f70ff76a87b888f32d6cf303cd228f8cf96566a85d44b969bf435422de2fa95da600460009054906101000a900473ffffffffffffffffffffffffffffffffffffffff166125e4836117e6565b604051808373ffffffffffffffffffffffffffffffffffffffff1673ffffffffffffffffffffffffffffffffffffffff16815260200180602001828103825283818151815260200191508051906020019080838360005b8381101561265657808201518184015260208101905061263b565b50505050905090810190601f1680156126835780820380516001836020036101000a031916815260200191505b50935050505060405180910390a15b81801561269c5750805b92505050919050565b6000806126b06120cd565b90506006548110156126e4577fffffffffffffffffffffffffffffffffffffffffffffffffffffffffffffffff91506126fc565b6006548111156126f757600191506126fc565b600091505b5090565b600a5481565b60008173ffffffffffffffffffffffffffffffffffffffff163373ffffffffffffffffffffffffffffffffffffffff1614806127c557508173ffffffffffffffffffffffffffffffffffffffff163273ffffffffffffffffffffffffffffffffffffffff161480156127c457506000809054906101000a900473ffffffffffffffffffffffffffffffffffffffff1673ffffffffffffffffffffffffffffffffffffffff163373ffffffffffffffffffffffffffffffffffffffff16145b5b9050919050565b828054600181600116156101000203166002900490600052602060002090601f016020900481019282601f1061280d57805160ff191683800117855561283b565b8280016001018555821561283b579182015b8281111561283a57825182559160200191906001019061281f565b5b509050612848919061284c565b5090565b61286e91905b8082111561286a576000816000905550600101612852565b5090565b905600a165627a7a72305820347c34d1af3385916bda9c1b27d7193defad25bd92bb619453c1dd398bc3606a0029",
  "source": "pragma solidity ^0.4.11;\r\nimport \"std.sol\";\r\nimport \"Loggable.sol\";\r\nimport \"PriceFeedApi.sol\";\r\nimport \"TradingAccount.sol\";\r\n\r\n\r\ncontract FeedBackedCall is owned, nameRegAware, loggable {\r\n\r\n    // Contract status\r\n    bool public         _isActive;\r\n    bool public         _isComplete;\r\n\r\n    // Participating addresses and accounts\r\n    address public      _buyer;\r\n    address public      _seller;\r\n    TradingAccount      _buyerAcct;\r\n    TradingAccount      _sellerAcct;\r\n\r\n    // Underlier details il notional equivale alla quantit di quell'asset che voglio acquistare\r\n    string public      _feedName;\r\n    uint public         _strikePrice;\r\n    uint public         _notional;\r\n    PriceFeedApi        _underlier;\r\n\r\n    // Maturity condition\r\n    uint public         _timeToMaturity;\r\n    uint public         _startTime;\r\n\r\n    function FeedBackedCall() {\r\n        _isActive = false;\r\n        _isComplete = false;\r\n    }\r\n\r\n    // Initialize with participants and terms\r\n    function initialize(\r\n        address sellerAcct,\r\n        address buyerAcct,\r\n        address feedProvider,\r\n        string feedName,\r\n        uint    strikePctOfMarketValue,\r\n        uint    notional,\r\n        uint    timeToMaturity) returns (bool) {\r\n\r\n        // Trading accounts\r\n        _buyerAcct = TradingAccount(buyerAcct);\r\n        _buyer = _buyerAcct._owner();\r\n        _sellerAcct = TradingAccount(sellerAcct);\r\n        _seller = _sellerAcct._owner();\r\n\r\n        // Underlier feed defaults to \"ether-camp/price-feed\"\r\n        if (feedProvider == 0) {\r\n            _underlier = PriceFeedApi(named(\"ether-camp/price-feed\"));\r\n        } else {\r\n            _underlier = PriceFeedApi(feedProvider);\r\n        }\r\n        _feedName = feedName;\r\n\r\n        // Strike price defined relative to market price\r\n        _strikePrice =  getSpotPrice() * strikePctOfMarketValue / 100;\r\n        _notional = notional;\r\n\r\n        // Maturity relative to current timestamp and denominated in minutes\r\n        _timeToMaturity = timeToMaturity;\r\n        _startTime = block.timestamp;\r\n\r\n        // Authorize trading account of caller\r\n        authorizeTradingAccounts(_timeToMaturity * 3);\r\n\r\n        return true;\r\n    }\r\n\r\n    // Authorize trading accounts for settlement\r\n    function authorizeTradingAccounts(uint buffer) returns (bool) {\r\n        bool buyerAuthed = true;\r\n        bool sellerAuthed = true;\r\n\r\n        if (initiatedBy(_buyer)) {\r\n            buyerAuthed = _buyerAcct.authorize(this,\r\n                                               _timeToMaturity + buffer);\r\n            Authorization(address(_buyerAcct),\r\n                          toText(buyerAuthed));\r\n        }\r\n        if (initiatedBy(_seller)) {\r\n            sellerAuthed = _sellerAcct.authorize(this,\r\n                                                 _timeToMaturity + buffer);\r\n            Authorization(address(_sellerAcct),\r\n                          toText(sellerAuthed));\r\n        }\r\n        return (buyerAuthed && sellerAuthed);\r\n    }\r\n\r\n    // Validate the contract in order to activate it\r\n    function validate() returns (bool) {\r\n        if (_isActive || _isComplete) {\r\n            Error(\"Validation requires inactive contract\");\r\n            return true;\r\n        }\r\n        // Authorize trading account of caller. This is assumed to be\r\n        // the counterparty of the initializer of this contract.\r\n        authorizeTradingAccounts(_timeToMaturity * 3);\r\n\r\n        // Need authorized trading accounts\r\n        if (!_buyerAcct.isAuthorized(this) ||\r\n            !_sellerAcct.isAuthorized(this)) {\r\n            Error(\"Validation requires authorized trading accounts\");\r\n            return false;\r\n        }\r\n\r\n        _isActive = true;\r\n        Validation(address(this),\r\n                   toText(true));\r\n        return true;\r\n    }\r\n\r\n    // Withdraw and nullify the contract if not validated\r\n    function withdraw() returns (bool) {\r\n        if (_isActive) {\r\n            Error(\"Withdrawal requires inactive contract\");\r\n            return false;\r\n        }\r\n        if (initiatedBy(_buyer) || initiatedBy(_seller)) {\r\n            Error(\"Withdrawal must be initiated by participant\");\r\n            return false;\r\n        }\r\n        // suicide(_owner);\r\n        _owner.send(this.balance);\r\n        _isComplete = true;\r\n        Withdrawal(address(this),\r\n                   toText(true));\r\n        return true;\r\n    }\r\n\r\n    // On maturity, allow the buyer to exercise the option\r\n    function exercise() returns (bool) {\r\n        if (!initiatedBy(_buyer)) {\r\n            Error(\"Exercise must be initiated by buyer\");\r\n            return false;\r\n        }\r\n        if (!isMature()) {\r\n            Error(\"Exercise requires maturity\");\r\n            return false;\r\n        }\r\n\r\n        // The contract owner first mops up any unclaimed balance\r\n        if (this.balance > 0) {\r\n            CashFlow(address(this),\r\n                     _owner,\r\n                     this.balance);\r\n            _owner.send(this.balance);\r\n        }\r\n\r\n        // Buyer claims the underlier at the strike price\r\n        _buyerAcct.withdraw(_strikePrice * _notional);\r\n        CashFlow(address(_buyerAcct),\r\n                 address(_sellerAcct),\r\n                 this.balance);\r\n        _sellerAcct.transfer(this.balance);\r\n\r\n        // Seller provides the underlier at the spot price\r\n        _sellerAcct.withdraw(getSpotPrice() * _notional);\r\n        CashFlow(address(_sellerAcct),\r\n                 address(_buyerAcct),\r\n                 this.balance);\r\n        _buyerAcct.transfer(this.balance);\r\n\r\n        _isActive = false;\r\n        _isComplete = true;\r\n        Exercise(address(this),\r\n                 toText(true));\r\n        return true;\r\n    }\r\n\r\n    // ===== Utility functions ===== //\r\n//controllo se ho raggiunto il tempo di maturity\r\n    function isMature() returns (bool) {\r\n        uint timeElapsed = block.timestamp - _startTime;\r\n        if (timeElapsed >= _timeToMaturity) {\r\n            return true;\r\n        } else {\r\n            return false;\r\n        }\r\n    }\r\n//mi controlla se il prezzo del sottostante  inferiore o superiore allo strike price\r\n    function getMoneyness() returns (int) {\r\n        uint spotPrice = getSpotPrice();\r\n        if (spotPrice < _strikePrice) {\r\n            return -1;\r\n        } else if (spotPrice > _strikePrice) {\r\n            return 1;\r\n        } else {\r\n            return 0;\r\n        }\r\n    }\r\n//recupero il prezzo del sottostante\r\n    function getSpotPrice() returns (uint) {\r\n        return _underlier.getPrice(_feedName);\r\n    }\r\n\r\n    function getValue() returns (int) {\r\n        return (int(getSpotPrice()) - int(_strikePrice)) * int(_notional);\r\n    }\r\n\r\n    function initiatedBy(address addr) private returns (bool) {\r\n        return msg.sender == addr ||\r\n               (tx.origin == addr && msg.sender == _owner);\r\n    }\r\n}\r\n",
  "sourcePath": "C:/Users/bigfo/Desktop/progetto tech/TesiAndreaGurioliContracts/contracts/FeedBackedCall.sol",
  "compiler": {
    "name": "solc",
    "version": "0.4.26+commit.4563c3fc.Emscripten.clang"
  },
  "schemaVersion": "3.0.20",
  "updatedAt": "2020-02-01T15:39:05.847Z",
  "devdoc": {
    "methods": {}
  },
  "userdoc": {
    "methods": {}
  }
}