{
  "contractName": "loggable",
  "abi": [
    {
      "anonymous": false,
      "inputs": [
        {
          "indexed": false,
          "name": "message",
          "type": "bytes"
        }
      ],
      "name": "Error",
      "type": "event"
    },
    {
      "anonymous": false,
      "inputs": [
        {
          "indexed": false,
          "name": "addr",
          "type": "address"
        },
        {
          "indexed": false,
          "name": "outcome",
          "type": "bytes"
        }
      ],
      "name": "Authorization",
      "type": "event"
    },
    {
      "anonymous": false,
      "inputs": [
        {
          "indexed": false,
          "name": "addr",
          "type": "address"
        },
        {
          "indexed": false,
          "name": "outcome",
          "type": "bytes"
        }
      ],
      "name": "Validation",
      "type": "event"
    },
    {
      "anonymous": false,
      "inputs": [
        {
          "indexed": false,
          "name": "addr",
          "type": "address"
        },
        {
          "indexed": false,
          "name": "outcome",
          "type": "bytes"
        }
      ],
      "name": "Withdrawal",
      "type": "event"
    },
    {
      "anonymous": false,
      "inputs": [
        {
          "indexed": false,
          "name": "addr",
          "type": "address"
        },
        {
          "indexed": false,
          "name": "outcome",
          "type": "bytes"
        }
      ],
      "name": "Exercise",
      "type": "event"
    },
    {
      "anonymous": false,
      "inputs": [
        {
          "indexed": false,
          "name": "from",
          "type": "address"
        },
        {
          "indexed": false,
          "name": "to",
          "type": "address"
        },
        {
          "indexed": false,
          "name": "amount",
          "type": "uint256"
        }
      ],
      "name": "CashFlow",
      "type": "event"
    },
    {
      "constant": false,
      "inputs": [
        {
          "name": "flag",
          "type": "bool"
        }
      ],
      "name": "toText",
      "outputs": [
        {
          "name": "",
          "type": "bytes"
        }
      ],
      "payable": false,
      "stateMutability": "nonpayable",
      "type": "function"
    }
  ],
  "bytecode": "0x608060405234801561001057600080fd5b5061019d806100206000396000f300608060405260043610610041576000357c0100000000000000000000000000000000000000000000000000000000900463ffffffff168063caf19e5a14610046575b600080fd5b34801561005257600080fd5b506100736004803603810190808035151590602001909291905050506100ee565b6040518080602001828103825283818151815260200191508051906020019080838360005b838110156100b3578082015181840152602081019050610098565b50505050905090810190601f1680156100e05780820380516001836020036101000a031916815260200191505b509250505060405180910390f35b60608115610133576040805190810160405280600781526020017f5355434345535300000000000000000000000000000000000000000000000000815250905061016c565b6040805190810160405280600781526020017f4641494c5552450000000000000000000000000000000000000000000000000081525090505b9190505600a165627a7a7230582044087e4f33eee1a704152b5eab855fe0516677c37cb44a62a506014104f3f19c0029",
  "source": "pragma solidity ^0.4.11;\r\ncontract loggable {\r\n\r\n    event Error(bytes message);\r\n\r\n    event Authorization(address addr, bytes outcome);\r\n    event Validation(address addr, bytes outcome);\r\n    event Withdrawal(address addr, bytes outcome);\r\n    event Exercise(address addr, bytes outcome);\r\n\r\n    event CashFlow(address from, address to, uint amount);\r\n\r\n    // ===== Utility functions ===== //\r\n\r\n    function toText(bool flag) returns (bytes) {\r\n        if (flag) {\r\n            return \"SUCCESS\";\r\n        } else {\r\n            return \"FAILURE\";\r\n        }\r\n    }\r\n}\r\n",
  "sourcePath": "C:/Users/bigfo/Desktop/progetto tech/TesiAndreaGurioliContracts/contracts/Loggable.sol",
  "compiler": {
    "name": "solc",
    "version": "0.4.26+commit.4563c3fc.Emscripten.clang"
  },
  "schemaVersion": "3.0.20",
  "updatedAt": "2020-01-29T11:37:31.205Z",
  "networkType": "ethereum",
  "devdoc": {
    "methods": {}
  },
  "userdoc": {
    "methods": {}
  }
}