{
  "contractName": "RandomizedPriceFeedApi",
  "abi": [
    {
      "constant": true,
      "inputs": [],
      "name": "_lastUpdateTime",
      "outputs": [
        {
          "name": "",
          "type": "uint256"
        }
      ],
      "payable": false,
      "stateMutability": "view",
      "type": "function"
    },
    {
      "constant": true,
      "inputs": [],
      "name": "updateTime",
      "outputs": [
        {
          "name": "",
          "type": "uint256"
        }
      ],
      "payable": false,
      "stateMutability": "view",
      "type": "function"
    },
    {
      "inputs": [],
      "payable": false,
      "stateMutability": "nonpayable",
      "type": "constructor"
    },
    {
      "anonymous": false,
      "inputs": [
        {
          "indexed": false,
          "name": "symbol",
          "type": "string"
        },
        {
          "indexed": false,
          "name": "actualPrice",
          "type": "uint256"
        }
      ],
      "name": "infoActualPrice",
      "type": "event"
    },
    {
      "constant": false,
      "inputs": [
        {
          "name": "symbol",
          "type": "string"
        }
      ],
      "name": "getPrice",
      "outputs": [
        {
          "name": "currPrice",
          "type": "uint256"
        }
      ],
      "payable": false,
      "stateMutability": "nonpayable",
      "type": "function"
    },
    {
      "constant": false,
      "inputs": [
        {
          "name": "symbol",
          "type": "string"
        },
        {
          "name": "value",
          "type": "uint256"
        }
      ],
      "name": "setPrice",
      "outputs": [
        {
          "name": "currPrice",
          "type": "uint256"
        }
      ],
      "payable": false,
      "stateMutability": "nonpayable",
      "type": "function"
    },
    {
      "constant": false,
      "inputs": [
        {
          "name": "symbol",
          "type": "string"
        }
      ],
      "name": "getTimestamp",
      "outputs": [
        {
          "name": "timestamp",
          "type": "uint256"
        }
      ],
      "payable": false,
      "stateMutability": "nonpayable",
      "type": "function"
    },
    {
      "constant": false,
      "inputs": [
        {
          "name": "symbol",
          "type": "string"
        }
      ],
      "name": "perturb",
      "outputs": [
        {
          "name": "",
          "type": "bool"
        }
      ],
      "payable": false,
      "stateMutability": "nonpayable",
      "type": "function"
    },
    {
      "constant": false,
      "inputs": [],
      "name": "ping",
      "outputs": [
        {
          "name": "",
          "type": "bool"
        }
      ],
      "payable": false,
      "stateMutability": "nonpayable",
      "type": "function"
    }
  ],
  "bytecode": "0x608060405234801561001057600080fd5b50600c600260405180807f5553445f45544800000000000000000000000000000000000000000000000000815250600701905090815260200160405180910390208190555061088d600260405180807f4254435f4554480000000000000000000000000000000000000000000000000081525060070190509081526020016040518091039020819055506310fcc140600260405180807f555344545f42544300000000000000000000000000000000000000000000000081525060080190509081526020016040518091039020819055506210d114600260405180807f4555525553440000000000000000000000000000000000000000000000000000815250600601905090815260200160405180910390208190555062175e6c600260405180807f474250555344000000000000000000000000000000000000000000000000000081525060060190509081526020016040518091039020819055506307390f60600260405180807f5553444a5059000000000000000000000000000000000000000000000000000081525060060190509081526020016040518091039020819055506345502400600260405180807f5841555553440000000000000000000000000000000000000000000000000000815250600601905090815260200160405180910390208190555062f15d10600260405180807f58414755534400000000000000000000000000000000000000000000000000008152506006019050908152602001604051809103902081905550637bb046b0600260405180807f53503530300000000000000000000000000000000000000000000000000000008152506005019050908152602001604051809103902081905550637fffffff600260405180807f4e4153444151000000000000000000000000000000000000000000000000000081525060060190509081526020016040518091039020819055506307190440600260405180807f4141504c0000000000000000000000000000000000000000000000000000000081525060040190509081526020016040518091039020819055506329d7ab80600260405180807f474f4f47000000000000000000000000000000000000000000000000000000008152506004019050908152602001604051809103902081905550630326bb70600260405180807f4d5346540000000000000000000000000000000000000000000000000000000081525060040190509081526020016040518091039020819055506302248db0600260405180807f474d00000000000000000000000000000000000000000000000000000000000081525060020190509081526020016040518091039020819055506303799660600260405180807f574d540000000000000000000000000000000000000000000000000000000000815250600301905090815260200160405180910390208190555062ef1af0600260405180807f46000000000000000000000000000000000000000000000000000000000000008152506001019050908152602001604051809103902081905550630202d4e0600260405180807f5400000000000000000000000000000000000000000000000000000000000000815250600101905090815260200160405180910390208190555042600360405180807f5553445f45544800000000000000000000000000000000000000000000000000815250600701905090815260200160405180910390208190555042600360405180807f4254435f45544800000000000000000000000000000000000000000000000000815250600701905090815260200160405180910390208190555042600360405180807f555344545f425443000000000000000000000000000000000000000000000000815250600801905090815260200160405180910390208190555042600360405180807f4555525553440000000000000000000000000000000000000000000000000000815250600601905090815260200160405180910390208190555042600360405180807f4742505553440000000000000000000000000000000000000000000000000000815250600601905090815260200160405180910390208190555042600360405180807f5553444a50590000000000000000000000000000000000000000000000000000815250600601905090815260200160405180910390208190555042600360405180807f5841555553440000000000000000000000000000000000000000000000000000815250600601905090815260200160405180910390208190555042600360405180807f5841475553440000000000000000000000000000000000000000000000000000815250600601905090815260200160405180910390208190555042600360405180807f5350353030000000000000000000000000000000000000000000000000000000815250600501905090815260200160405180910390208190555042600360405180807f4e41534441510000000000000000000000000000000000000000000000000000815250600601905090815260200160405180910390208190555042600360405180807f4141504c00000000000000000000000000000000000000000000000000000000815250600401905090815260200160405180910390208190555042600360405180807f474f4f4700000000000000000000000000000000000000000000000000000000815250600401905090815260200160405180910390208190555042600360405180807f4d53465400000000000000000000000000000000000000000000000000000000815250600401905090815260200160405180910390208190555042600360405180807f474d000000000000000000000000000000000000000000000000000000000000815250600201905090815260200160405180910390208190555042600360405180807f574d540000000000000000000000000000000000000000000000000000000000815250600301905090815260200160405180910390208190555042600360405180807f4600000000000000000000000000000000000000000000000000000000000000815250600101905090815260200160405180910390208190555042600360405180807f54000000000000000000000000000000000000000000000000000000000000008152506001019050908152602001604051809103902081905550426001819055506108a8806109486000396000f300608060405260043610610083576000357c0100000000000000000000000000000000000000000000000000000000900463ffffffff16806322e01192146100885780632a6dc8841461010f57806332e5e59514610190578063524f38891461020d5780635c36b1861461028a5780636adafab5146102b9578063dc555090146102e4575b600080fd5b34801561009457600080fd5b506100f9600480360381019080803590602001908201803590602001908080601f01602080910402602001604051908101604052809392919081815260200183838082843782019150505050505091929192908035906020019092919050505061030f565b6040518082815260200191505060405180910390f35b34801561011b57600080fd5b50610176600480360381019080803590602001908201803590602001908080601f0160208091040260200160405190810160405280939291908181526020018383808284378201915050505050509192919290505050610499565b604051808215151515815260200191505060405180910390f35b34801561019c57600080fd5b506101f7600480360381019080803590602001908201803590602001908080601f0160208091040260200160405190810160405280939291908181526020018383808284378201915050505050509192919290505050610632565b6040518082815260200191505060405180910390f35b34801561021957600080fd5b50610274600480360381019080803590602001908201803590602001908080601f01602080910402602001604051908101604052809392919081815260200183838082843782019150505050505091929192905050506106a7565b6040518082815260200191505060405180910390f35b34801561029657600080fd5b5061029f61082b565b604051808215151515815260200191505060405180910390f35b3480156102c557600080fd5b506102ce610870565b6040518082815260200191505060405180910390f35b3480156102f057600080fd5b506102f9610876565b6040518082815260200191505060405180910390f35b6000816002846040518082805190602001908083835b60208310151561034a5780518252602082019150602081019050602083039250610325565b6001836020036101000a0380198251168184511680821785525050505050509050019150509081526020016040518091039020819055507f80a492204e850148e0ca5e104639efab26e3a5d4ef456a3b030a6876bbc2706483836040518080602001838152602001828103825284818151815260200191508051906020019080838360005b838110156103ea5780820151818401526020810190506103cf565b50505050905090810190601f1680156104175780820380516001836020036101000a031916815260200191505b50935050505060405180910390a16002836040518082805190602001908083835b60208310151561045d5780518252602082019150602081019050602083039250610438565b6001836020036101000a038019825116818451168082178552505050505050905001915050908152602001604051809103902054905092915050565b60008060006002846040518082805190602001908083835b6020831015156104d657805182526020820191506020810190506020830392506104b1565b6001836020036101000a0380198251168184511680821785525050505050509050019150509081526020016040518091039020549150600a8281151561051857fe5b049050600060024381151561052957fe5b06141561053a578082019150610540565b80820391505b816002856040518082805190602001908083835b6020831015156105795780518252602082019150602081019050602083039250610554565b6001836020036101000a038019825116818451168082178552505050505050905001915050908152602001604051809103902081905550426003856040518082805190602001908083835b6020831015156105e957805182526020820191506020810190506020830392506105c4565b6001836020036101000a03801982511681845116808217855250505050505090500191505090815260200160405180910390208190555042600181905550600192505050919050565b60006003826040518082805190602001908083835b60208310151561066c5780518252602082019150602081019050602083039250610647565b6001836020036101000a0380198251168184511680821785525050505050509050019150509081526020016040518091039020549050919050565b60007f80a492204e850148e0ca5e104639efab26e3a5d4ef456a3b030a6876bbc27064826002846040518082805190602001908083835b60208310151561070357805182526020820191506020810190506020830392506106de565b6001836020036101000a0380198251168184511680821785525050505050509050019150509081526020016040518091039020546040518080602001838152602001828103825284818151815260200191508051906020019080838360005b8381101561077d578082015181840152602081019050610762565b50505050905090810190601f1680156107aa5780820380516001836020036101000a031916815260200191505b50935050505060405180910390a16002826040518082805190602001908083835b6020831015156107f057805182526020820191506020810190506020830392506107cb565b6001836020036101000a0380198251168184511680821785525050505050509050019150509081526020016040518091039020549050919050565b600061086b6040805190810160405280600781526020017f5553445f45544800000000000000000000000000000000000000000000000000815250610499565b905090565b60015481565b600054815600a165627a7a72305820d6de418dfc1251247fd2ae74cb072fb52156b4dcbd211e3eacbfa859375925d20029",
  "source": "pragma solidity ^0.4.11;\r\nimport \"PriceFeedApi.sol\";\r\n\r\ncontract RandomizedPriceFeedApi is PriceFeedApi {\r\n     event infoActualPrice(string symbol, uint actualPrice);\r\n    // Timestamp when the prices were last updated.\r\n    uint public _lastUpdateTime;\r\n\r\n    mapping(string => uint)    _prices;\r\n    mapping(string => uint)    _timestamps;\r\n\r\n    function RandomizedPriceFeedApi() {\r\n        _prices['USD_ETH']  = 12;\r\n        _prices['BTC_ETH']  = 2189;\r\n        _prices['USDT_BTC'] = 285000000;\r\n        _prices['EURUSD']   = 1102100;\r\n        _prices['GBPUSD']   = 1531500;\r\n        _prices['USDJPY']   = 121180000;\r\n        _prices['XAUUSD']   = 1162880000;\r\n        _prices['XAGUSD']   = 15818000;\r\n        _prices['SP500']    = 2075150000;\r\n        _prices['NASDAQ']   = 2147483647;\r\n        _prices['AAPL']     = 119080000;\r\n        _prices['GOOG']     = 702000000;\r\n        _prices['MSFT']     = 52870000;\r\n        _prices['GM']       = 35950000;\r\n        _prices['WMT']      = 58300000;\r\n        _prices['F']        = 15670000;\r\n        _prices['T']        = 33740000;\r\n\r\n        _timestamps['USD_ETH']  = block.timestamp;\r\n        _timestamps['BTC_ETH']  = block.timestamp;\r\n        _timestamps['USDT_BTC'] = block.timestamp;\r\n        _timestamps['EURUSD']   = block.timestamp;\r\n        _timestamps['GBPUSD']   = block.timestamp;\r\n        _timestamps['USDJPY']   = block.timestamp;\r\n        _timestamps['XAUUSD']   = block.timestamp;\r\n        _timestamps['XAGUSD']   = block.timestamp;\r\n        _timestamps['SP500']    = block.timestamp;\r\n        _timestamps['NASDAQ']   = block.timestamp;\r\n        _timestamps['AAPL']     = block.timestamp;\r\n        _timestamps['GOOG']     = block.timestamp;\r\n        _timestamps['MSFT']     = block.timestamp;\r\n        _timestamps['GM']       = block.timestamp;\r\n        _timestamps['WMT']      = block.timestamp;\r\n        _timestamps['F']        = block.timestamp;\r\n        _timestamps['T']        = block.timestamp;\r\n\r\n        _lastUpdateTime = block.timestamp;\r\n    }\r\n\r\n    // Returns the price of an asset, represented as an uint equal to\r\n    // (double price) * 1000000\r\n    function getPrice(string symbol) returns(uint currPrice) {\r\n        infoActualPrice(symbol, _prices[symbol]);\r\n        return _prices[symbol];\r\n    }\r\n    \r\n       function setPrice(string symbol, uint value) returns(uint currPrice) {\r\n          _prices[symbol]= value;\r\n          infoActualPrice(symbol, value);\r\n        return _prices[symbol];\r\n    }\r\n\r\n    // Returns the timestamp of the latest price for an asset.\r\n    // Normally this is the exchange timestamp, but if the exchange\r\n    // doesn't supply such info the latest data retrieval time is returned.\r\n    function getTimestamp(string symbol) returns (uint timestamp) {\r\n        return _timestamps[symbol];\r\n    }\r\n\r\n    // Randomly modify the price for a given symbol.\r\n    function perturb(string symbol) returns(bool) {\r\n        uint price = _prices[symbol];\r\n        uint shift = price / 10;\r\n        if (block.number % 2 == 0) {\r\n            price = price + shift;\r\n        } else {\r\n            price = price - shift;\r\n        }\r\n\r\n        _prices[symbol] = price;\r\n        _timestamps[symbol] = block.timestamp;\r\n        _lastUpdateTime = block.timestamp;\r\n        return true;\r\n    }\r\n\r\n    // Lets an external agent randomly perturb values as desired.\r\n    function ping() returns (bool) {\r\n        return perturb(\"USD_ETH\");\r\n    }\r\n}\r\n",
  "sourcePath": "C:/Users/bigfo/Desktop/progetto tech/TesiAndreaGurioliContracts/contracts/RandomizedPriceFeedApi.sol",
  "compiler": {
    "name": "solc",
    "version": "0.4.26+commit.4563c3fc.Emscripten.clang"
  },
  "schemaVersion": "3.0.20",
  "updatedAt": "2020-01-30T16:20:18.396Z",
  "networkType": "ethereum",
  "devdoc": {
    "methods": {}
  },
  "userdoc": {
    "methods": {}
  }
}