{
  "contractName": "TradingAccount",
  "abi": [
    {
      "constant": false,
      "inputs": [],
      "name": "claim",
      "outputs": [],
      "payable": false,
      "stateMutability": "nonpayable",
      "type": "function"
    },
    {
      "constant": true,
      "inputs": [
        {
          "name": "",
          "type": "uint256"
        }
      ],
      "name": "_addresses",
      "outputs": [
        {
          "name": "",
          "type": "address"
        }
      ],
      "payable": false,
      "stateMutability": "view",
      "type": "function"
    },
    {
      "constant": false,
      "inputs": [
        {
          "name": "newOwner",
          "type": "address"
        }
      ],
      "name": "changeOwner",
      "outputs": [],
      "payable": false,
      "stateMutability": "nonpayable",
      "type": "function"
    },
    {
      "constant": true,
      "inputs": [
        {
          "name": "",
          "type": "address"
        }
      ],
      "name": "_authorized",
      "outputs": [
        {
          "name": "duration",
          "type": "uint256"
        },
        {
          "name": "startTime",
          "type": "uint256"
        }
      ],
      "payable": false,
      "stateMutability": "view",
      "type": "function"
    },
    {
      "constant": true,
      "inputs": [],
      "name": "_owner",
      "outputs": [
        {
          "name": "",
          "type": "address"
        }
      ],
      "payable": false,
      "stateMutability": "view",
      "type": "function"
    },
    {
      "constant": false,
      "inputs": [
        {
          "name": "flag",
          "type": "bool"
        }
      ],
      "name": "toText",
      "outputs": [
        {
          "name": "",
          "type": "bytes"
        }
      ],
      "payable": false,
      "stateMutability": "nonpayable",
      "type": "function"
    },
    {
      "inputs": [],
      "payable": false,
      "stateMutability": "nonpayable",
      "type": "constructor"
    },
    {
      "payable": true,
      "stateMutability": "payable",
      "type": "fallback"
    },
    {
      "anonymous": false,
      "inputs": [
        {
          "indexed": false,
          "name": "accountad",
          "type": "address"
        },
        {
          "indexed": false,
          "name": "timerem",
          "type": "uint256"
        }
      ],
      "name": "infoAcc",
      "type": "event"
    },
    {
      "anonymous": false,
      "inputs": [
        {
          "indexed": false,
          "name": "message",
          "type": "bytes"
        }
      ],
      "name": "Error",
      "type": "event"
    },
    {
      "anonymous": false,
      "inputs": [
        {
          "indexed": false,
          "name": "addr",
          "type": "address"
        },
        {
          "indexed": false,
          "name": "outcome",
          "type": "bytes"
        }
      ],
      "name": "Authorization",
      "type": "event"
    },
    {
      "anonymous": false,
      "inputs": [
        {
          "indexed": false,
          "name": "addr",
          "type": "address"
        },
        {
          "indexed": false,
          "name": "outcome",
          "type": "bytes"
        }
      ],
      "name": "Validation",
      "type": "event"
    },
    {
      "anonymous": false,
      "inputs": [
        {
          "indexed": false,
          "name": "addr",
          "type": "address"
        },
        {
          "indexed": false,
          "name": "outcome",
          "type": "bytes"
        }
      ],
      "name": "Withdrawal",
      "type": "event"
    },
    {
      "anonymous": false,
      "inputs": [
        {
          "indexed": false,
          "name": "addr",
          "type": "address"
        },
        {
          "indexed": false,
          "name": "outcome",
          "type": "bytes"
        }
      ],
      "name": "Exercise",
      "type": "event"
    },
    {
      "anonymous": false,
      "inputs": [
        {
          "indexed": false,
          "name": "from",
          "type": "address"
        },
        {
          "indexed": false,
          "name": "to",
          "type": "address"
        },
        {
          "indexed": false,
          "name": "amount",
          "type": "uint256"
        }
      ],
      "name": "CashFlow",
      "type": "event"
    },
    {
      "constant": false,
      "inputs": [
        {
          "name": "amount",
          "type": "uint256"
        }
      ],
      "name": "withdraw",
      "outputs": [
        {
          "name": "",
          "type": "bool"
        }
      ],
      "payable": false,
      "stateMutability": "nonpayable",
      "type": "function"
    },
    {
      "constant": false,
      "inputs": [
        {
          "name": "accountAddr",
          "type": "address"
        },
        {
          "name": "duration",
          "type": "uint256"
        }
      ],
      "name": "authorize",
      "outputs": [
        {
          "name": "",
          "type": "bool"
        }
      ],
      "payable": false,
      "stateMutability": "nonpayable",
      "type": "function"
    },
    {
      "constant": false,
      "inputs": [
        {
          "name": "accountAddr",
          "type": "address"
        }
      ],
      "name": "isAuthorized",
      "outputs": [
        {
          "name": "",
          "type": "bool"
        }
      ],
      "payable": false,
      "stateMutability": "nonpayable",
      "type": "function"
    },
    {
      "constant": false,
      "inputs": [],
      "name": "destroySmartAccount",
      "outputs": [],
      "payable": false,
      "stateMutability": "nonpayable",
      "type": "function"
    }
  ],
  "bytecode": "0x608060405234801561001057600080fd5b50336000806101000a81548173ffffffffffffffffffffffffffffffffffffffff021916908373ffffffffffffffffffffffffffffffffffffffff160217905550610ded806100606000396000f3006080604052600436106100a4576000357c0100000000000000000000000000000000000000000000000000000000900463ffffffff1680632e1a7d4d146100a65780634e71d92d146100eb5780634f82517c14610102578063a6f9dae11461016f578063af5f98b4146101b2578063b2bdfa7b14610210578063c1dbd9b214610267578063caf19e5a146102cc578063fd51c75014610374578063fe9fbb801461038b575b005b3480156100b257600080fd5b506100d1600480360381019080803590602001909291905050506103e6565b604051808215151515815260200191505060405180910390f35b3480156100f757600080fd5b5061010061055e565b005b34801561010e57600080fd5b5061012d600480360381019080803590602001909291905050506106ec565b604051808273ffffffffffffffffffffffffffffffffffffffff1673ffffffffffffffffffffffffffffffffffffffff16815260200191505060405180910390f35b34801561017b57600080fd5b506101b0600480360381019080803573ffffffffffffffffffffffffffffffffffffffff16906020019092919050505061072a565b005b3480156101be57600080fd5b506101f3600480360381019080803573ffffffffffffffffffffffffffffffffffffffff1690602001909291905050506107c3565b604051808381526020018281526020019250505060405180910390f35b34801561021c57600080fd5b506102256107e7565b604051808273ffffffffffffffffffffffffffffffffffffffff1673ffffffffffffffffffffffffffffffffffffffff16815260200191505060405180910390f35b34801561027357600080fd5b506102b2600480360381019080803573ffffffffffffffffffffffffffffffffffffffff1690602001909291908035906020019092919050505061080c565b604051808215151515815260200191505060405180910390f35b3480156102d857600080fd5b506102f9600480360381019080803515159060200190929190505050610b68565b6040518080602001828103825283818151815260200191508051906020019080838360005b8381101561033957808201518184015260208101905061031e565b50505050905090810190601f1680156103665780820380516001836020036101000a031916815260200191505b509250505060405180910390f35b34801561038057600080fd5b50610389610beb565b005b34801561039757600080fd5b506103cc600480360381019080803573ffffffffffffffffffffffffffffffffffffffff169060200190929190505050610c80565b604051808215151515815260200191505060405180910390f35b60003073ffffffffffffffffffffffffffffffffffffffff16318211156104b0577fc75fb740d515c4fc862cc5c8f95343266e804872e7206e24f75751db41c4bcdc6040518080602001828103825260348152602001807f5769746864726177616c20616d6f756e74206c696d6974656420746f2063757281526020017f72656e74206163636f756e742062616c616e636500000000000000000000000081525060400191505060405180910390a13073ffffffffffffffffffffffffffffffffffffffff163191505b6000809054906101000a900473ffffffffffffffffffffffffffffffffffffffff1673ffffffffffffffffffffffffffffffffffffffff163373ffffffffffffffffffffffffffffffffffffffff161480610510575061050f33610c80565b5b15610554573373ffffffffffffffffffffffffffffffffffffffff166108fc839081150290604051600060405180830381858888f193505050505060019050610559565b600090505b919050565b6000809054906101000a900473ffffffffffffffffffffffffffffffffffffffff1673ffffffffffffffffffffffffffffffffffffffff163273ffffffffffffffffffffffffffffffffffffffff161480156106a457506000809054906101000a900473ffffffffffffffffffffffffffffffffffffffff1673ffffffffffffffffffffffffffffffffffffffff163373ffffffffffffffffffffffffffffffffffffffff1663b2bdfa7b6040518163ffffffff167c0100000000000000000000000000000000000000000000000000000000028152600401602060405180830381600087803b15801561065157600080fd5b505af1158015610665573d6000803e3d6000fd5b505050506040513d602081101561067b57600080fd5b810190808051906020019092919050505073ffffffffffffffffffffffffffffffffffffffff16145b156106ea57336000806101000a81548173ffffffffffffffffffffffffffffffffffffffff021916908373ffffffffffffffffffffffffffffffffffffffff1602179055505b565b6002818154811015156106fb57fe5b906000526020600020016000915054906101000a900473ffffffffffffffffffffffffffffffffffffffff1681565b6000809054906101000a900473ffffffffffffffffffffffffffffffffffffffff1673ffffffffffffffffffffffffffffffffffffffff163373ffffffffffffffffffffffffffffffffffffffff1614156107c057806000806101000a81548173ffffffffffffffffffffffffffffffffffffffff021916908373ffffffffffffffffffffffffffffffffffffffff1602179055505b50565b60016020528060005260406000206000915090508060000154908060010154905082565b6000809054906101000a900473ffffffffffffffffffffffffffffffffffffffff1681565b6000806000809054906101000a900473ffffffffffffffffffffffffffffffffffffffff1673ffffffffffffffffffffffffffffffffffffffff163273ffffffffffffffffffffffffffffffffffffffff161415156108fc577fc75fb740d515c4fc862cc5c8f95343266e804872e7206e24f75751db41c4bcdc6040518080602001828103825260308152602001807f417574686f72697a6174696f6e206d75737420626520696e697469617465642081526020017f6279206163636f756e74206f776e65720000000000000000000000000000000081525060400191505060405180910390a160009150610b61565b600083141561099c577fc75fb740d515c4fc862cc5c8f95343266e804872e7206e24f75751db41c4bcdc6040518080602001828103825260288152602001807f417574686f72697a6174696f6e20726571756972657320706f7369746976652081526020017f6475726174696f6e00000000000000000000000000000000000000000000000081525060400191505060405180910390a160009150610b61565b600160008573ffffffffffffffffffffffffffffffffffffffff1673ffffffffffffffffffffffffffffffffffffffff1681526020019081526020016000209050600081600001541415610ac057604080519081016040528084815260200142815250600160008673ffffffffffffffffffffffffffffffffffffffff1673ffffffffffffffffffffffffffffffffffffffff168152602001908152602001600020600082015181600001556020820151816001015590505060028490806001815401808255809150509060018203906000526020600020016000909192909190916101000a81548173ffffffffffffffffffffffffffffffffffffffff021916908373ffffffffffffffffffffffffffffffffffffffff16021790555050610b5c565b82610ae98260408051908101604052908160008201548152602001600182015481525050610d9a565b1015610b5b57604080519081016040528084815260200142815250600160008673ffffffffffffffffffffffffffffffffffffffff1673ffffffffffffffffffffffffffffffffffffffff16815260200190815260200160002060008201518160000155602082015181600101559050505b5b600191505b5092915050565b60608115610bad576040805190810160405280600781526020017f53554343455353000000000000000000000000000000000000000000000000008152509050610be6565b6040805190810160405280600781526020017f4641494c5552450000000000000000000000000000000000000000000000000081525090505b919050565b6000809054906101000a900473ffffffffffffffffffffffffffffffffffffffff1673ffffffffffffffffffffffffffffffffffffffff163373ffffffffffffffffffffffffffffffffffffffff16141515610c4657600080fd5b6000809054906101000a900473ffffffffffffffffffffffffffffffffffffffff1673ffffffffffffffffffffffffffffffffffffffff16ff5b600080600160008473ffffffffffffffffffffffffffffffffffffffff1673ffffffffffffffffffffffffffffffffffffffff16815260200190815260200160002090507fb92ea8279bbc54c28c574915f0f2f7caa2647b899a38ed626849af0234e93df383610d0e8360408051908101604052908160008201548152602001600182015481525050610d9a565b604051808373ffffffffffffffffffffffffffffffffffffffff1673ffffffffffffffffffffffffffffffffffffffff1681526020018281526020019250505060405180910390a160008160000154118015610d9257506000610d8f8260408051908101604052908160008201548152602001600182015481525050610d9a565b10155b915050919050565b600080603c83602001514203811515610daf57fe5b049050808360000151039150509190505600a165627a7a723058207f07ae718df7d1ec638fccd3e21930c9197314a3e0bbd34da2955b26869001dd0029",
  "source": "pragma solidity ^0.4.11;\r\nimport \"std.sol\";\r\nimport \"Loggable.sol\";\r\n\r\ncontract TradingAccount is owned, loggable {\r\n    event infoAcc(address accountad, uint timerem);\r\n\r\n    struct AuthPeriod {\r\n        uint        duration;       // currently in minutes\r\n        uint        startTime;\r\n    }\r\n\r\n    mapping(address => AuthPeriod)  public _authorized;\r\n    address[]                       public _addresses;\r\n\r\n    function TradingAccount() {}\r\n\r\n    //funzione sostituita con una payable\r\n   /* function deposit() returns (bool)  {\r\n        if (msg.sender == _owner || isAuthorized(msg.sender)) {\r\n            // Accept the deposit\r\n            return true;\r\n        } else {\r\n            // Just return the deposit\r\n            Error(\"Deposit must be made from authorized account\");\r\n            msg.sender.send(msg.value);\r\n            return false;\r\n        }\r\n    }  */\r\n    function () payable{}\r\n\r\n    function withdraw(uint amount) returns (bool) {\r\n        if (amount > this.balance) {\r\n            // Trim the amount to the current balance\r\n            // TODO: should maintain a withdrawal limit\r\n            Error(\"Withdrawal amount limited to current account balance\");\r\n            amount = this.balance;\r\n        }\r\n        if (msg.sender == _owner || isAuthorized(msg.sender)) {\r\n            // Withdraw the money\r\n            // TODO: need slack to withdraw after authorization period\r\n            msg.sender.send(amount);\r\n            return true;\r\n        }\r\n        return false;\r\n    }\r\n\r\n    function authorize(address accountAddr, uint duration) returns (bool) {\r\n        if (tx.origin != _owner) {\r\n            Error(\"Authorization must be initiated by account owner\");\r\n            return false;\r\n        }\r\n        if (duration == 0) {\r\n            Error(\"Authorization requires positive duration\");\r\n            return false;\r\n        }\r\n        AuthPeriod period = _authorized[accountAddr];\r\n        if (period.duration == 0) {\r\n            // Add this account to the list of authorized accounts\r\n            _authorized[accountAddr] = AuthPeriod(duration, block.timestamp);\r\n            _addresses.push(accountAddr);\r\n        } else if (timeRemaining(period) < duration) {\r\n            // Extend the authorized duration for this account\r\n            _authorized[accountAddr] = AuthPeriod(duration, block.timestamp);\r\n        }\r\n        // TODO: retain AuthPeriod history in linked list for revocation\r\n        return true;\r\n    }\r\n\r\n    function isAuthorized(address accountAddr) returns (bool) {\r\n        // Check if address wasn't authorized or authorization has expired\r\n        AuthPeriod period = _authorized[accountAddr];\r\n        // emetto evento\r\n        infoAcc(accountAddr, timeRemaining(period));\r\n        return (period.duration > 0 && timeRemaining(period) >= 0);\r\n    }\r\n    function destroySmartAccount() public{\r\n        require(msg.sender==_owner);\r\n        selfdestruct(_owner);\r\n    }\r\n\r\n    function timeRemaining(AuthPeriod period) private returns (uint) {\r\n        uint timeElapsed = (block.timestamp - period.startTime) / 60;\r\n        return period.duration - timeElapsed;\r\n    }\r\n}\r\n",
  "sourcePath": "C:/Users/bigfo/Desktop/progetto tech/TesiAndreaGurioliContracts/contracts/TradingAccount.sol",
  "compiler": {
    "name": "solc",
    "version": "0.4.26+commit.4563c3fc.Emscripten.clang"
  },
  "schemaVersion": "3.0.20",
  "updatedAt": "2020-01-29T11:37:31.209Z",
  "networkType": "ethereum",
  "devdoc": {
    "methods": {}
  },
  "userdoc": {
    "methods": {}
  }
}